:020000040000FA
:100000008501073099005828A900030EAA000108AD
:10001000AD000408AB008B1C342881018B1005193E
:1000200017280B118B16831601178312512883167C
:10003000011383128B1E51282C148B1264302D0255
:10004000031C2528E030AF003A2808302D02031C9D
:1000500051283008840027302D02800DAF0F312841
:100060002C10AE0F512845288B1E51280B1D5128EE
:100070008B122C10F8302E02031951282C1730083F
:1000800084000310800DAE0F4128F830AE00B00A96
:100090006030300247300319B000300826020319DF
:1000A000AC162B0884002A0E8300A90E290E090025
:1000B0004730B000A60084008001F830AE003A302E
:1000C000B800B9008316443081002C3085006400EC
:1000D000FF2390008312AC01B3014130A200013034
:1000E000A300F130B500EB21D72190308B006F22B7
:1000F0004E3072225E3072221010E7308F00953041
:100100008E000C1031309000F021B70F8B28CE30CC
:10011000B700FB30AC05B60FAE28B50F92286F22A2
:10012000F130B500EC30B600A50A0F3025050A3CC9
:1001300006300319A50760302502031CAE28A5016F
:10014000A40A0F3024050A3C06300319A407A03086
:100150002402031CAE28A4010C187C28AC1EB42871
:10016000AC12083072226D222C1FBA282C130030DA
:1001700072226D22CF203908840038020319AC287E
:100180008F220319BB2824222C18AC282C1ECC2823
:1001900041222C126522AC282822800AAC2826088D
:1001A0008400C02103190800533027020319DC28FA
:1001B000270883221921D128C021031908002C30D7
:1001C00027020319E62853308322D428C0210319BB
:1001D00008002708A800C0210319080027082807DD
:1001E000013E031D022928080339031D0229192194
:1001F000FC30B30003308A000310A80C280CA80DB3
:10020000BF3E820026088400C02103190800270889
:100210008322C0210319080027088322C021031963
:10022000080027088322C021031908002708832219
:100230006D220408A600080081307222280883225B
:10024000813072226D2AB3010800AC1DD7218B309A
:100250007222163072226D2AAC19D721EB211E3082
:1002600072226D2AAC19CF214130A2008D3072224A
:1002700011307222193072226D2AEB21A2030F3045
:1002800022050319A20A83307222273072222E30EF
:1002900072226D2AEB21A20A463022024630031850
:1002A000A200853072222B3072226D2A0230AC06F9
:1002B00091307222343072226D2A8F3072223B309C
:1002C00072226D2A0430AC06CE30B7008F30722215
:1002D0003B3072226D2AAC19E521EB21A30A0F30C5
:1002E00023050A3C06300319A307A030230201307E
:1002F0000318A30087307222403072226D2AAC1995
:10030000E521EB210F30230506300319A302A303D7
:1003100099300319A30089307222453072226D2A68
:100320004130A200933072227122633072226D2A12
:100330004230A200953072227122653072226D2AFD
:100340004330A200973072227122673072226D2AE8
:100350004430A200973072227122693072226D2AD5
:100360004530A2009730722271226B3072226D2AC2
:100370004630A2009730722271226D3072226D2AAF
:1003800004083002031908000008A700840A60303E
:100390000402031D08004730840003110800AC115B
:1003A000A530B1000800AC15EA30B1000800AC156A
:1003B000AE30B100D130B400E830B2000800AC1566
:1003C000C830B100F630B2000800AC15DE30B10024
:1003D000F430B2000800EC30B600A501A40108001A
:1003E00002308A003108820022080F2223080F22DF
:1003F00024080F2225080F220030AC1820382C19B1
:1004000010380F2A99300F2299300F2259300F22BD
:1004100048300F2AB30803190F2A2038B30A2422C0
:10042000A10A050801388500FD39A00D031C02381A
:100430008500FE39850094229422A10F122A5130A2
:10044000013E031D202A0800A000F730A10008008B
:100450008B130508103885009B229622A10A0319E8
:100460003A2AA00C031C2A2AEF39000085009622A4
:100470009C222E2A3B2AEF3985008B179B229B2238
:10048000080085128B1383168512831298229822F6
:10049000982298224B2AA10A03195A2AA00C031C5D
:1004A000432A83168516831298229822982298222E
:1004B00000004B2A000000008316851683128B175C
:1004C0009A229A229A229A220800B90A47303902BF
:1004D0003A300319B900031508005E30722A533010
:1004E000722A2F30A0000408A100380884002008D8
:1004F0008000B80A473038023A300319B8002108A2
:10050000840003150800A800280E0F39A100210758
:10051000613E7222A80D28081E39613E722A0330FE
:100520008A000008031182000000A02A00009D2A12
:1005300000009C2A9B2A9C2A9D2A9E2A9F2AA02A48
:10054000A12AA22AA32AA42A0800EC30B6004B3024
:100550000A22F42170300F2243300A2AEC30B60010
:10056000CB300A22321CBC2AF42110300F22C330B7
:100570000A22B20F0800DF2934080F22D6303402D5
:10058000D130031D340AB400022200300F22B72AF2
:10059000EC30B600CB300A22321CD62AF42151307E
:1005A0000F22C3300A22B20F0800D32922080F39C4
:1005B000D0380F22022200300F22D12AEC30B600B0
:1005C000CB300A22F42151300F22C3300A22B20F5D
:1005D0000800D329CB300A22F42130300F22C33057
:0205E0000A2AE5
:100600006434613474346134653472347234652A0C
:100610006F3476346534723466346C346F347734C6
:10062000652A4D34443449345334652A4D344534B5
:100630004E34413442344C344534652A4D344934C7
:100640004E3451345534493452345934652A503477
:1006500052345634652A4E34583454345F344C3452
:10066000493453345434652A523441344E3444347A
:100670004F344D34652A50344C3441345934652A52
:100680004E34453458345434652A50345234453449
:10069000563449344F3455345334652A523449342E
:1006A0004E344734652A5634573443344434503436
:1006B0004934433432342E34373464340D340A34FC
:1006C000652A3034652A3134652A3234652A333458
:1006D000652A3434652A3534652A3634652A373438
:1006E000652A3834652A3934652A4134652A42340A
:1006F000652A4334652A4434652A4534652A4634DC
:10070000652A2D34652A2C16C2342C16C1342C16B9
:10071000C8342C16C4342C16E4342C1610342C1681
:10072000A0342C1649342C16D1342C16D2342C1665
:10073000D3342C16D4342C16D5342C16D634BB0412
:02077E001C2934
:100780001C295D299029322923293D291C291C294E
:100790001C291C29B0291C291C292C291C291C298D
:1007A0001C291C29A0291C291C293D291C29562942
:1007B0001C296B291C291C291C297F291C291C295F
:1007C0001C291C2998291C291C291C291C2962293F
:1007D0001C297F29B8291C291C291C291C291C29F2
:1007E0001C291C29A8291C291C294A291C295629ED
:0E07F00025291C291C291C291C296B291C29C0
:02400E00C43FAD
:10420000560057004300440050004900430020007E
:104210004600690072006D00770061007200650061
:104220002000760032002E00370064000A004300B0
:104230006F00700079007200690067006800740008
:1042400020002800630029002000320030003000E8
:1042500032002D0032003000300035002C002000EC
:104260004B003900730070007500640020004C00A2
:104270004C0043002E000A004C00690063006500FA
:104280006E00730065006400200075006E0064001D
:1042900065007200200047004E00550020004700D6
:1042A00065006E006500720061006C002000500027
:1042B000750062006C006900630020004C0069001A
:1042C000630065006E007300650020007600320018
:1042D0002E000A007700770077002E006B0039006F
:1042E00073007000750064002E0063006F006D00A5
:0242F0000A00C2
:00000001FF
