:020000040000FA
:100000008501073099005828A900030EAA000108AD
:10001000AD000408AB008B1C342881018B1005193E
:1000200017280B118B16831601178312512883167C
:10003000011383128B1E51282C148B1264302D0255
:10004000031C2528E030AF003A2808302D02031C9D
:1000500051283008840027302D02800DAF0F312841
:100060002C10AE0F512845288B1E51280B1D5128EE
:100070008B122C10F8302E02031951282C1730083F
:1000800084000310800DAE0F4128F830AE00B00A96
:100090006030300247300319B000300826020319DF
:1000A000AC162B0884002A0E8300A90E290E090025
:1000B0004730B000A60084008001F830AE003A302E
:1000C000B800B9008316443081002C3085006400EC
:1000D0009F01FF2390008312AC01B501B301C6015B
:1000E000BE30A200FE30A300BE21A02190308B00C4
:1000F0001010CF308F002B308E000C10313090005C
:10010000C221B70F8728CE30B700FB30AC05B60F41
:10011000AC28F630B600C608031DC603AC1DAA28DD
:10012000A5030F302505FB3EFA300319A507A630BD
:1001300025020318AC28FF30A500A4030F302405C6
:10014000FB3EFA300319A407663024020318AC28DA
:10015000FF30A4000C187828AC1EB228AC12033073
:100160005F223E222C1FB8282C1300305F223E2233
:10017000C6080319CC2039088400C608031DAA2824
:1001800038020319AA287C220319BB28F6212C184F
:10019000AA281222800AAA28260884008921031985
:1001A0000800533027020319D92827087022162186
:1001B000CE288921031908002C3027020319E328CF
:1001C00053307022D1288921031908002708A8007C
:1001D00089210319080027082807013E031DFF286D
:1001E00028080339031DFF281621FC30B300033013
:1001F0008A000310A80C280CA80DBF3E8200260818
:100200008400892103190800270870228921031915
:100210000800270870228921031908002708702286
:10022000892103190800270870223E220408A6002D
:1002300008003B305F22280870223B305F223E2AB4
:10024000B3010800AC1D252908004B22AA21080093
:10025000AC19AA21BE210800AC199821BE30A20019
:100260005B220800BE21A20ABF302202B930031867
:10027000A2004F22BE21A203B9302202B930031CD2
:10028000A2004F2208000230AC0608000430AC0681
:10029000CE30B7000800AC19B821BE21A3030F303F
:1002A0002305FB3EFA300319A30766302302FE3014
:1002B000031CA30057220800AC19B821BE21A30AD1
:1002C0000F30230506300319A307FF3023026630E1
:1002D0000318A30053220800BE30A2004F220800DA
:1002E000BD30A2004F220800BC30A2004F220800FF
:1002F000BB30A2004F220800BA30A2004F220800F3
:10030000B930A2004F220800AC1D22299C214F22A7
:10031000080004083002031908000008A700840A36
:1003200060300402031D08004730840003110800F8
:10033000AC118130B1000800AC118830B100080068
:10034000AC118F30B100EC30B2000800AC15C930F0
:10035000B1000800AC159330B1002E30B400E83085
:10036000B2000800AC15AB30B100F630B2000800A6
:10037000AC15BF30B100F430B2000800FF30A5006A
:10038000A400080002308A00310882002208E1211E
:100390002308E1212408E1212508E121FB30AC1CE0
:1003A0000F382C192F39E1296630E1216630E1211F
:1003B000A630E121B730E129B3080319E129DF397B
:1003C000B30AF621A10A050801388500FD39A00D00
:1003D000031802388500FE39850050235023A10FF1
:1003E000E4295130013E031DF2290800A000F73036
:1003F000A10008008B1305081038850042234E2306
:10040000A10A03190B2AA00C031CFC29EF39850053
:100410004E234E23002A0C2AEF3985008B174223E6
:100420004223080085128B138316851283124C23F6
:100430004C234C234C231C2AA10A03192B2AA00C61
:10044000031C142A8316851683124C234C234C2339
:100450004C2300001C2A000000008316851683121E
:100460008B1741234123412341230800B90A463019
:1004700039023A300319B9000315080018305F2A11
:100480000A305F2210305F2212305F2206305F2276
:100490000C305F220800402208305F223E2A4022B2
:1004A0000C305F223E2A402214305F223E2A402236
:1004B00016305F223E2A40220E305F223E2AA000E4
:1004C0000408A1003808840020088000B80A4630DB
:1004D00038023A300319B8002108840003150800D7
:1004E000A800280E0F39A10021071B3E5F22A80D8E
:1004F00028081E391B3E5F2A03308A0000080311BA
:1005000082007430DC21C6218F30E1217C30DC296F
:10051000B430DC21C621DF30E121BC30DC29B20F50
:10052000812AAA21812A3430DC21321C9F2AC6214B
:10053000EF30E1213C30DC21B20F0800B229340851
:10054000E121293034022E30031D3403B400D421BC
:10055000FF30E1219A2A3430DC21321CB72AC6212F
:10056000AE30E1213C30DC21B20F0800A629220880
:100570000F392038E121D421FF30E121B22A343073
:10058000DC21C621AE30E1213C30DC21B20F080075
:10059000A6293430DC21C621CF30E1213C30DC29D2
:1006000064346534362A6F346634362A2B34362AFD
:100610004134362A4334362A5034362A5534362A61
:100620004F34362A4D34362A5634362A4E34362A3A
:100630000D340A34362A3034362A3134362A3234EC
:10064000362A3334362A3434362A3534362A363488
:10065000362A3734362A3834362A3934362A413461
:10066000362A4234362A4334362A4434362A45342C
:10067000362A4634362A2D34362A54345034362A13
:10068000BB04422B432B442B452B462B472B482B9B
:10069000492B4A2B4B2B08000000432B0000442B16
:0406A0000000472BE4
:02077E00192937
:10078000192922296C292C292029322919291929CA
:10079000192919297C29842919292829192919296C
:1007A000192919297429192919293229192943299B
:1007B00019294B291929192919295C2919291929B4
:1007C0001929192970291929192919291929462995
:1007D00019295C298029192919291929192919295F
:1007E000192919297829192919293A29192943294F
:0E07F000222919291929192919294B291929F2
:02400E00E43F8D
:10420000560057004300440050004900430020007E
:104210004600690072006D00770061007200650061
:104220002000760032002E00380070007200650019
:1042300033000A0043006F007000790072006900CB
:104240006700680074002000280063002900200037
:1042500032003000300032002D00320030003000DB
:1042600034002C002000450064002000530063004F
:1042700068006C0075006E0064006500720020002C
:104280003C006500640040006B0039007300700062
:10429000750064002E0063006F006D003E000A0090
:1042A0004C006900630065006E00730065006400E7
:1042B000200075006E006400650072002000470059
:1042C0004E0055002000470065006E00650072003A
:1042D00061006C0020005000750062006C006900F5
:1042E000630020004C006900630065006E007300ED
:0C42F00065002000760032002E000A005D
:00000001FF
