:020000040000FA
:100000008501073099005828A900030EAA000108AD
:10001000AD000408AB008B1C342881018B1005193E
:1000200017280B118B16831601178312512883167C
:10003000011383128B1E51282C148B1264302D0255
:10004000031C2528E030AF003A2808302D02031C9D
:1000500051283008840027302D02800DAF0F312841
:100060002C10AE0F512845288B1E51280B1D5128EE
:100070008B122C10F8302E02031951282C1730083F
:1000800084000310800DAE0F4128F830AE00B00A96
:100090006030300247300319B000300826020319DF
:1000A000AC162B0884002A0E8300A90E290E090025
:1000B0004730B000A60084008001F830AE003A302E
:1000C000B800B9008316443081002C3085006400EC
:1000D000FF2390008312AC01B501B301C601BE300D
:1000E000A200FE30A3000722E92190308B00892274
:1000F00043308C2252308C221010CF308F002B30A6
:100100008E000C10313090000B22B50A03198922A1
:10011000B70F8E28CE30B700FB30AC05B60FB32832
:10012000F630B600C608031DC603AC1DB128A503F2
:100130000F302505FB3EFA300319A507A63025022E
:100140000318B328FF30A500A4030F302405FB3E9D
:10015000FA300319A407663024020318B328FF30CD
:10016000A4000C187C28AC1EB928AC1203308C22D9
:1001700087222C1FBF282C1300308C228722C60810
:100180000319D92039088400C608031DB128380294
:100190000319B128A9220319C2283F222C18B1281B
:1001A0002C1ED6285B222C127F22B1284322800AE3
:1001B000B12826088400D2210319080053302702F1
:1001C0000319E62827089D222321DB28D2210319C1
:1001D00008002C3027020319F02853309D22DE2816
:1001E000D221031908002708A800D221031908000A
:1001F00027082807013E031D0C2928080339031D81
:100200000C292321FC30B30003308A000310A80C12
:10021000280CA80DBF3E820026088400D2210319B5
:10022000080027089D22D2210319080027089D22D3
:10023000D2210319080027089D22D22103190800A2
:1002400027089D2287220408A600080075308C220A
:1002500028089D2275308C22872AB301080082303D
:100260008C220B308C228722AC1D37290800F32109
:100270000800AC19F321072213308C22872AAC190D
:10028000E121BE30A20084308C2206308C220E3058
:100290008C22872208000722A20ABF302202B9302E
:1002A0000318A2007A308C221C308C2223308C223E
:1002B000872A0722A203B9302202B930031CA20008
:1002C0007C308C2220308C22872A0230AC06883089
:1002D0008C2229308C22872A0430AC06CE30B7001D
:1002E00086308C2230308C2287220800AC19012203
:1002F0000722A3030F302305FB3EFA300319A3079F
:1003000066302302FE30031CA3007E308C22353081
:100310008C22872AAC1901220722A30A0F30230559
:1003200006300319A307FF30230266300318A30029
:1003300080308C223A308C22872ABE30A2008A304C
:100340008C228B2257308C22872ABD30A2008C3021
:100350008C228B2259308C22872ABC30A2008E300E
:100360008C228B225B308C22872ABB30A2009030FB
:100370008C228B225D308C22872ABA30A2009230E8
:100380008C228B225F308C22872AB930A2009430D5
:100390008C228B2261308C22872AAC19E5217730A0
:1003A0008C22872A04083002031908000008A700DD
:1003B000840A60300402031D0800473084000311E2
:1003C0000800AC11AE30B1000800AC11B530B1007E
:1003D0000800AC11BC30B100EC30B2000800AC1524
:1003E000F630B1000800AC15C030B1002E30B400BA
:1003F000E830B2000800AC15D830B100F630B200D9
:100400000800AC15EC30B100F430B2000800FF3049
:10041000A500A400080002308A00310882002208EA
:100420002A2223082A2224082A2225082A22FB30ED
:10043000AC1C0F382C192F392A2A66302A22663034
:100440002A22A6302A22B7302A2AB30803192A2AD8
:10045000DF39B30A3F22A10A050801388500FD39BA
:10046000A00D031802388500FE398500A623A623B7
:10047000A10F2D2A5130013E031D3B2A0800A00088
:10048000F730A10008008B13050810388500982369
:10049000A423A10A0319542AA00C031C452AEF39EE
:1004A0008500A423A423492A552AEF3985008B17F8
:1004B00098239823080085128B13831685128312C4
:1004C000A223A223A223A223652AA10A0319742A24
:1004D000A00C031C5D2A831685168312A223A22377
:1004E000A223A2230000652A0000000083168516BF
:1004F00083128B1797239723972397230800B90A12
:10050000463039023A300319B90003150800523059
:100510008C2A48308C2A2430A0000408A100380816
:10052000840020088000B80A463038023A300319A7
:10053000B8002108840003150800A800280E0F3910
:10054000A1002107553E8C22A80D28081E39553ED2
:100550008C2A03308A00000803118200743025229F
:100560000F228F302A227C30252AB43025220F22F8
:10057000DF302A22BC30252AB20FAE2AF321AE2A60
:1005800034302522321CCC2A0F22EF302A223C3074
:100590002522B20F0800FB2934082A222930340210
:1005A0002E30031D3403B4001D22FF302A22C72A37
:1005B00034302522321CE42A0F22AE302A223C306D
:1005C0002522B20F0800EF2922080F3920382A22ED
:1005D0001D22FF302A22DF2A343025220F22AE309E
:1005E0002A223C302522B20F0800EF293430252280
:0A05F0000F22CF302A223C30252ACA
:10060000643465347F2A6F3466347F2A4D34443431
:10061000493453347F2A4D3445344E3441344234C6
:100620004C3445347F2A4D3449344E34513455349A
:100630004934523459347F2A5034523456347F2A44
:100640004E34583454345F344C3449345334543475
:100650007F2A523441344E3444344F344D347F2A4F
:1006600050344C34413459347F2A4E344534583454
:1006700054347F2A503452344534563449344F343C
:10068000553453347F2A523449344E3447347F2A08
:100690005634573443344434503449344334323478
:1006A0002E3438340D340A347F2A30347F2A3134E2
:1006B0007F2A32347F2A33347F2A34347F2A3534F8
:1006C0007F2A36347F2A37347F2A38347F2A3934D8
:1006D0007F2A41347F2A42347F2A43347F2A44349C
:1006E0007F2A45347F2A46347F2A2D347F2A54348A
:1006F00050347F2A2C16C2342C16C1342C16C83420
:100700002C16C4342C16E4342C1610342C16A034B9
:100710002C1649342C16D1342C16D2342C16D33442
:100720002C16D4342C16D5342C16D634BB04982B66
:10073000992B9A2B9B2B9C2B9D2B9E2B9F2BA02B7D
:10074000A12B08000000992B00009A2B00009D2B84
:02077E0026292A
:10078000262965299D293F292D294B2926292629F6
:1007900026292629BD29CD29262939292629262990
:1007A00026292629AD29262926294B2926296529E6
:1007B000262976292629262926298A29262926290D
:1007C00026292629A52926292629262926296C29EC
:1007D00026298A29C529262926292629262926299E
:1007E00026292629B5292629262959292629652990
:0E07F0002F2926292629262926297629262979
:02400E00E43F8D
:10420000560057004300440050004900430020007E
:104210004600690072006D00770061007200650061
:104220002000760032002E00380070007200650019
:1042300033000A0043006F007000790072006900CB
:104240006700680074002000280063002900200037
:1042500032003000300032002D00320030003000DB
:1042600034002C002000450064002000530063004F
:1042700068006C0075006E0064006500720020002C
:104280003C006500640040006B0039007300700062
:10429000750064002E0063006F006D003E000A0090
:1042A0004C006900630065006E00730065006400E7
:1042B000200075006E006400650072002000470059
:1042C0004E0055002000470065006E00650072003A
:1042D00061006C0020005000750062006C006900F5
:1042E000630020004C006900630065006E007300ED
:0C42F00065002000760032002E000A005D
:00000001FF
