:020000040000FA
:020000005D2879
:08000800AA00030EAB00010881
:10001000B0000408AC008B1C312881018B1006183D
:1000200017280B118B168316011783125628831677
:10003000011383128B1E56288B123208840027303E
:100040003002800CB10F5628840AF830B100F0302D
:100050000402031D2D28A030840080010408B20092
:1000600056280B1C44280B102F15861F4428AE0160
:10007000F83018230310861F0314AE0C1E23013E14
:10008000031D3A2800002F158B1E56280B1D5628DD
:100090008B122F14F830B100B20AF0303202031D77
:1000A0005328A030B2003208840080012C0884005C
:1000B0002B0E8300AA0E2A0E09004030850086010F
:1000C000A030B200A50084008001F830B1000730F4
:1000D0009F0083160613861006110612851105115E
:1000E000051364004430810083121930A300BE3030
:1000F000A200FE30A4000130B300AF01B5010B1027
:100100008B100B168B158B179920AE200C140C1C22
:100110008E28F6239020B50A03199920B720872846
:10012000101029308F0027308E000C100130900005
:1001300008005630FF225730FF224330FF22443060
:10014000FF225030FF224930FF224330FF2231305E
:10015000FF222E30FF223430FF22A0295230FF220E
:100160004930FF224E30FF224730FF22A0292508C8
:1001700084006C220319080095302602031DB9285B
:100180006C220319080069302602031DBC286C226A
:10019000031908002608A7006C2203190800260886
:1001A000A8006C220319080080302602031D2329B1
:1001B000EB2103192029CE2103192029BD21031980
:1001C0002029A621031920298221031920296D2124
:1001D000031920290F22031920291D220319202980
:1001E0002B22031920293922031920294722031918
:1001F00020295522031920292621031920295821B5
:10020000031920293E2103192029250884006C2286
:10021000031908002608F0226C220319080026089A
:10022000F0226C22031908002608F0226C22031920
:1002300008002608F0226C22031908002608F02284
:100240000408A50008000230A50708004E30270268
:10025000031D0800B0302802031D080088224D301D
:10026000FF224530FF224E30FF224130FF22423034
:10027000FF224C30FF224530FF22A02938302702D0
:10028000031D0800C6302802031D0800AF224D30B0
:10029000FF224930FF224E30FF225130FF225530DD
:1002A000FF224930FF225230FF225930FF22A0297D
:1002B00010302702031D0800EE302802031D08003D
:1002C0000130B3001930A3004D30FF224430FF222B
:1002D0004930FF225330FF22352934302702031DD5
:1002E0000800CA302802031D0800A20ABF302202FB
:1002F000BE300318A2005030FF225230FF22563089
:10030000FF22962936302702031D0800C830280234
:10031000031D0800A203B6302202B630031CA2005F
:100320004E30FF225830FF225430FF225F30FF2230
:100330004C30FF224930FF225330FF225430FF223D
:100340000D30FF220A30FF22031508000C3027026F
:10035000031D0800F2302802031D08000230AF061A
:100360005230FF224130FF224E30FF224430FF2224
:100370004F30FF224D30FF22A0290A302702031DF3
:100380000800F4302802031D08005030FF224C30D2
:10039000FF224130FF225930FF22A0293E302702A0
:1003A000031D0800C0302802031D0800A4030F30FD
:1003B0002405FB3EFA300319A40766302402663098
:1003C000031CA4004E30FF224530FF225830FF228C
:1003D0005430FF22A0293C302702031D0800C23000
:1003E0002802031D0800A40A0F3024050630031953
:1003F000A407FF302402FE300318A4005030FF226F
:100400005230FF224530FF225630FF224930FF2272
:100410004F30FF225530FF225330FF22A029603099
:100420002702031D08009E302802031D0800BE306D
:10043000A20063223130FF22A02962302702031D6F
:1004400008009C302802031D0800BD30A200632272
:100450003230FF22A02964302702031D08009A30A1
:100460002802031D0800BC30A20063223330FF22A3
:10047000A02966302702031D080098302802031DBA
:100480000800BB30A20063223430FF22A02968306C
:100490002702031D080096302802031D0800BA3009
:1004A000A20063223530FF22A0296A302702031DF3
:1004B000080094302802031D0800B930A20063220E
:1004C0003630FF22A0294C30FF224930FF22533022
:1004D000FF225430FF2208000408320203190800EA
:1004E0000008A600840AF0300402031D0800A030B2
:1004F0008400031108000730013E031D7C2A080018
:100500007430DA22C7228F30DA227C30DA220800F7
:100510000230B300FE30B40008009430DA22C72263
:10052000AE30DA229C30DA22B40F08000330B30078
:10053000EC30B40008003430DA22C722AE30DA22C0
:100540003C30DA22B40F08000430B3000800343025
:10055000DA22C722CF30DA223C30DA220800053016
:10056000B300FE30B40008001430DA222E30DA2254
:10057000FF30DA22FF30DA22FF30DA22FF30DA22CF
:10058000FF30DA221C30DA22B40F0800A42A1F3010
:10059000230222080318CE2A2308A30ADA222408F9
:1005A000DA22FF30DA22FF30DA22FB30AF1C0F38BC
:1005B000DA220800A000F830A90005088B130838DB
:1005C0008500FB39A00D031804388500F739850034
:1005D000A90FDF2A8B17AC30013E031DEC2A08005F
:1005E000A100210E0F39F63E0318073E3A3EFF22C6
:1005F00021080F39F63E0318073E3A3EFF2AA000B5
:10060000F730A9008B1306084038860000001F232E
:10061000A90A0319122BA00C031C042BBF39860056
:100620001F23082B132BBF3986001E238B170800AE
:10063000192B1A2B1B2B1C2B1D2B1E2B1F2B202B7E
:10064000212B222B232B242B252B262B272B282B2E
:10065000292B2A2B2B2B2C2B2D2B2E2B2F2B302BDE
:06066000312B322B0800D3
:0407EC0003308A004C
:1007F000330882070000802A8D2A9B2AA72AB42A60
:02400E00503F21
:00000001FF
