:020000040000FA
:020000003A289C
:08000800A300030EA40004088C
:10001000A5008B1C33283E0884000310051A031426
:10002000800DBF0F1F28840AF830BF00FF30040284
:10003000031D1C28A030840080010408BE008B1022
:1000400033288B1E33280B1D33288B122814F830CD
:10005000BF00BE0AFF303E02031D3028A030BE00A4
:100060003E088400800125088400240E8300A30E2E
:10007000230E09008501860107309F008316640066
:1000800083308100981618150A309900831298174A
:10009000F830BF00A700A030BE0084008001A80196
:1000A0008B100B168B170C166C20A70104083E0250
:1000B000031D6228A70F56282E3095200030A70078
:1000C000AF20562800088620840AFF300402031D52
:1000D0005628A03084005628563095205730952059
:1000E0004330952044309520433095204130952071
:1000F00050309520313095202E309520303095208D
:1001000081280D3095200A3095200800A100210E8D
:100110000F39F63E0318073E3A3E952021080F3965
:10012000F63E0318073E3A3E95280C1E95280C1201
:10013000990008009B289C289D289E289F28A0287D
:10014000A128A228A328A428A528A628A728A8284B
:10015000A928AA28AB28AC28AD28AE28AF28B028FB
:0A016000B128B228B328B428080023
:02400E00423F2F
:00000001FF
