:020000040000FA
:020000004A288C
:08000800AC00030EAD0001087D
:10001000B0000408AE008B1C312881018B1005193B
:1000200017280B118B16831601178312432883168A
:10003000011383128B1E43288B1232088400273051
:100040003002800CB10F4328840AF830B1006030D0
:100050000402031D2D283830840080010408B200FA
:1000600043288B1E43280B1D43288B122F14F83076
:10007000B100B20A60303202031D40283830B200AD
:100080003208840080012E0884002D0E8300AC0EFF
:100090002C0E090085013830B200A70084008001D1
:1000A000F830B100073099008316051085108512CD
:1000B0000512640095011515811301178112811134
:1000C000011581100110FF23900083120030A3005E
:1000D000BE30A200FE30A4000130B300AF01B50174
:1000E0008B100B168B17AD20C22030230C140C1C68
:1000F000A228A420F523B50A0319AD20B70F842840
:10010000CE30B700FB30AF05B60FA228F630B600F0
:10011000A6030F302605FB3EFA300319A607A630CA
:1001200026020318A228FF30A600A5030F302505DC
:10013000FB3EFA300319A507663025020318A228F2
:10014000FF30A500CB2077281010CF308F002B3048
:100150008E000C1031309000080056305A23573072
:100160005A2343305A2344305A2350305A234930BB
:100170005A2343305A2332305A232E305A233530F3
:100180005A23C02952305A2349305A234E305A2319
:1001900047305A23C02927088400C32203190800C6
:1001A00095302802031DCD28C322031908006930A9
:1001B0002802031DD028C322031908002808A9001B
:1001C000C322031908002808AA00C3220319080043
:1001D00080302802031D3829292203193529FF21DF
:1001E00003193529E82103193529C62103193529B1
:1001F0009F21031935298721031935295A2203190B
:1002000035296A22031935297A22031935298A22C8
:10021000031935299A2203193529AA2203193529E8
:100220003B21031935296F2103193529562103195B
:10023000352927088400C3220319080028084B2306
:10024000C3220319080028084B23C32203190800FE
:1002500028084B23C3220319080028084B23C32274
:100260000319080028084B23C0210408A700080030
:100270000230A70708004E302902031D0800B030E5
:100280002A02031D0800013033020319DF224D301A
:100290005A2345305A234E305A2341305A23423094
:1002A0005A234C305A2345305A23C029383029026A
:1002B000031D0800C6302A02031D08004D305A23D2
:1002C00049305A234E305A2351305A2355305A233D
:1002D00049305A2352305A2359305A23C0291030FA
:1002E0002902031D0800EE302A02031D0800BE305B
:1002F000A2000130B30030230030A3004D305A2358
:1003000044305A2349305A2353305A234D2934302C
:100310002902031D0800CA302A02031D08003023E9
:10032000A20ABF302202BE300318A200E0307323BD
:1003300050305A2352305A2356305A23B629363079
:100340002902031D0800C8302A02031D08003023BB
:10035000A203B9302202B930031CA200D0307323AB
:100360004E305A2358305A2354305A235F305A2380
:100370004C305A2349305A2353305A2354305A238D
:100380000D305A230A305A23031508000C30290275
:10039000031DDF29F2302A02031D08000230AF06D8
:1003A000C230732352305A2341305A234E305A23DD
:1003B00044305A234F305A234D305A23C0290E302F
:1003C0002902031D0800F0302A020319CE29080073
:1003D0000A302902031D0800F4302A02031D080018
:1003E0000430AF06CE30B700C130732350305A23EB
:1003F0004C305A2341305A2359305A23C0293E30B9
:100400002902031D202AC0302A02031D08000723E9
:100410003023A4030F302405FB3EFA300319A40750
:10042000663024026630031CA400C83073234E30AB
:100430005A2345305A2358305A2354305A23C0295E
:100440002C302902031D0800D2302A020319072A82
:1004500008003C302902031D512AC2302A02031D24
:10046000080007233023A40A0F302405063003199F
:10047000A407FF302402FE300318A400C430732305
:1004800050305A2352305A2345305A2356305A237B
:1004900049305A234F305A2355305A2353305A2368
:1004A000C0292A302902031D0800D4302A0203196A
:1004B000312A080060302902031D08009E302A02FC
:1004C000031D0800BE30A20007233023BA223130BA
:1004D0005A23C02962302902031D08009C302A02D9
:1004E000031D080007233023BD30A200BA2232309A
:1004F0005A23C02964302902031D08009A302A02B9
:10050000031D080007233023BC30A200BA22333079
:100510005A23C02966302902031D080098302A0298
:10052000031D080007233023BB30A200BA22343059
:100530005A23C02968302902031D080096302A0278
:10054000031D080007233023BA30A200BA22353039
:100550005A23C0296A302902031D080094302A0258
:10056000031D080007233023B930A200BA22363019
:100570005A23C0294C305A2349305A2353305A2326
:1005800054305A23080004083202031908000008F6
:10059000A800840A60300402031D0800383084007B
:1005A000031108000730013E031DD32A08007430F0
:1005B000342316238F3034237C3034230800023058
:1005C000B300FE30B4000800943034231623AE305C
:1005D00034239C303423B40F08000330B300EC30D4
:1005E000B4000800343034231623AE3034233C30BA
:1005F0003423B40F0800072B0430B3000800343054
:1006000034231623CF3034233C3034230800053004
:10061000B300FE30B4000800143034231623FF303A
:1006200034231C303423B40F0800FC2A2F3023025B
:1006300022080318222BA30A293023022208031CB4
:10064000222B2308342324083423250834232608A6
:100650003423FB30AF1C0F382F192F3934230800F7
:10066000FF30A600A5000800A000F830AB00050888
:100670008B1320388500EF39A00D03181038850042
:10068000DF398500A023AB0F392B8B175130013E8A
:10069000031D472B0800A100210E0F39F63E031859
:1006A000073E3A3E5A2321080F39F63E0318073E0B
:1006B0003A3E5A2BA000F730AB008B1305080138E7
:1006C000850000009A23AB0A03196D2BA00C031CB4
:1006D0005F2BFE3985009A23632B6E2BFE39850034
:1006E00099238B170800A000F730AB008B138316FB
:1006F00085108312982398237D2BAB0A03198A2B2C
:10070000A00C031C772B831685148312982398233F
:1007100000007D2B000000008316851483129723B0
:1007200097238B170800942B952B962B972B982BA0
:10073000992B9A2B9B2B9C2B9D2B9E2B9F2BA02B7D
:10074000A12BA22BA32BA42BA52BA62BA72BA82B2D
:0C075000A92BAA2BAB2BAC2BAD2B080067
:0607EA0003308A00330811
:0E07F00082070000D72AE42AF22AFF2A0C2BE7
:02400E00C43FAD
:10420000560057004300440050004900430020007E
:104210004600690072006D00770061007200650061
:104220002000760032002E0035000A0043006F00A7
:104230007000790072006900670068007400200057
:1042400028006300290020003200300030003300D5
:104250002C002000450064007700610072006400BB
:1042600020005300630068006C0075006E0064005D
:104270006500720020003C006500640040006B0097
:10428000390073007000750064002E0063006F0039
:104290006D003E000A004C006900630065006E007E
:1042A000730065006400200075006E006400650006
:1042B0007200200047004E005500200047006500B6
:1042C0006E006500720061006C00200050007500F7
:1042D00062006C006900630020004C00690063000C
:1042E00065006E00730065002000760032002E002D
:0242F0000A00C2
:00000001FF
