:020000040000FA
:020000004B288B
:08000800AA00030EAB00010881
:10001000B0000408AC008B1C312881018B1005193D
:1000200017280B118B168316011783124428831689
:10003000011383128B1E44288B1232088400273050
:100040003002800CB10F4428840AF830B1006030CF
:100050000402031D2D283630840080010408B200FC
:10006000442832288B1E44280B1D44288B122F1441
:10007000F830B100B20A60303202031D4128363038
:10008000B2003208840080012C0884002B0E83000B
:10009000AA0E2A0E090085013630B200A5008400A0
:1000A0008001F830B10007309900831605108510E3
:1000B000851205126400950115158113011781122F
:1000C0008111011581100110FF239000831200306F
:1000D000A300BE30A200FE30A4000130B300AF0187
:1000E000B5018B100B168B1789209E200C140C1C4D
:1000F0007E28F5238020B50A03198920A7207728B8
:10010000101029308F0027308E000C100130900025
:10011000080056301D2357301D2343301D23443023
:100120001D2350301D2349301D2343301D23323001
:100130001D232E301D2330301D23962952301D23C0
:1001400049301D234E301D2347301D239629250895
:10015000840085220319080095302602031DA92872
:1001600085220319080069302602031DAC28852268
:10017000031908002608A70085220319080026088D
:10018000A80085220319080080302602031D1329C8
:10019000F92103191029D12103191029BE210319AE
:1001A00010299C21031910297621031910295F2198
:1001B000031910292822031910293622031910299E
:1001C000442203191029522203191029602203190D
:1001D00010296E220319102916210319102948210C
:1001E000031910292E2103191029250884008522BE
:1001F0000319080026080E23852203190800260883
:100200000E2385220319080026080E2385220319D0
:10021000080026080E2385220319080026080E234D
:100220000408A50008000230A50708004E30270288
:10023000031D0800B0302802031D0800A1224D3024
:100240001D2345301D234E301D2341301D234230D8
:100250001D234C301D2345301D239629383027029D
:10026000031D0800C6302802031D0800C8224D30B7
:100270001D2349301D234E301D2351301D23553081
:100280001D2349301D2352301D2359301D2396292B
:1002900010302702031D0800EE302802031D08005D
:1002A000BE30A2000130B3000030A3004D301D234A
:1002B00044301D2349301D2353301D23252934305C
:1002C0002702031D0800CA302802031D0800A20AE5
:1002D000BF302202BE300318A200E0303623503077
:1002E0001D2352301D2356301D238C293630270202
:1002F000031D0800C8302802031D0800A203B930FE
:100300002202B930031CA200D03036234E301D2308
:1003100058301D2354301D235F301D234C301D23C6
:1003200049301D2353301D2354301D230D301D2310
:100330000A301D23031508000C302702031DB529C0
:10034000F2302802031D08000230AF06C230362307
:1003500052301D2341301D234E301D2344301D23B8
:100360004F301D234D301D2396290E302702031DCB
:100370000800F03028020319A42908000A302702D7
:10038000031D0800F4302802031D0800C130362385
:1003900050301D234C301D2341301D2359301D2367
:1003A00096293E302702031DF029C0302802031D84
:1003B0000800A4030F302405FB3EFA300319A407FC
:1003C000663024026630031CA400C83036234E3049
:1003D0001D2345301D2358301D2354301D239629DD
:1003E0002C302702031D0800D23028020319D92916
:1003F00008003C302702031D1F2AC2302802031DBB
:100400000800A40A0F30240506300319A407FF30A2
:100410002402FE300318A400C430362350301D23BC
:1004200052301D2345301D2356301D2349301D23D6
:100430004F301D2355301D2353301D2396292A305C
:100440002702031D0800D43028020319012A0800DE
:1004500060302702031D08009E302802031D08009B
:10046000BE30A2007C2231301D2396296230270243
:10047000031D08009C302802031D0800BD30A200A7
:100480007C2232301D23962964302702031D080088
:100490009A302802031D0800BC30A2007C223330B1
:1004A0001D23962966302702031D08009830280274
:1004B000031D0800BB30A2007C2234301D23962986
:1004C00068302702031D080096302802031D08002B
:1004D000BA30A2007C2235301D2396296A302702CB
:1004E000031D080094302802031D0800B930A20043
:1004F0007C2236301D2396294C301D2349301D2384
:1005000053301D2354301D23080004083202031900
:1005100008000008A600840A60300402031D0800D9
:1005200036308400031108000730013E031D952A70
:1005300008007430F822E0228F30F8227C30F82254
:1005400008000230B300FE30B40008009430F822F6
:10055000E022AE30F8229C30F822B40F08000330BD
:10056000B300EC30B40008003430F822E022AE30A2
:10057000F8223C30F822B40F08000430B300080021
:100580003430F822E022CF30F8223C30F822080044
:100590000530B300FE30B40008001430F8222E30CD
:1005A000F822FF30F822FF30F822FF30F822FF3027
:1005B000F822FF30F8221C30F822B40F0800BD2AC0
:1005C0001F30230222080318EC2AA30A1930230241
:1005D0002208031CEC2A2308F8222408F822FF3002
:1005E000F822FF30F822FB30AF1C0F38F822080049
:1005F000A000F830A90005088B1320388500EF39DA
:10060000A00D031810388500DF398500A90FFD2AD9
:100610008B17AC30013E031D0A2B0800A100210EF0
:100620000F39F63E0318073E3A3E1D2321080F39C5
:10063000F63E0318073E3A3E1D2BA000F730A900F6
:100640008B1305080138850000005D23A90A0319F2
:10065000302BA00C031C222BFE3985005D23262B9A
:10066000312BFE3985005C238B170800A000F73082
:10067000A9008B138316851083125B235B23402B09
:10068000A90A03194D2BA00C031C3A2B83168514C1
:1006900083125B235B230000402B000000008316C5
:1006A000851483125A235A238B170800572B582B73
:1006B000592B5A2B5B2B5C2B5D2B5E2B5F2B602BFE
:1006C000612B622B632B642B652B662B672B682BAE
:1006D000692B6A2B6B2B6C2B6D2B6E2B6F2B702B5E
:0206E000080010
:0607EA0003308A00330811
:0E07F00082070000992AA62AB42AC02ACD2A20
:02400E00C43FAD
:00000001FF
