:020000040000FA
:100000008501073099005828A900030EAA000108AD
:10001000AD000408AB008B1C342881018B1005193E
:1000200017280B118B16831601178312512883167C
:10003000011383128B1E51282C148B1264302D0255
:10004000031C2528E030AF003A2808302D02031C9D
:1000500051283008840027302D02800DAF0F312841
:100060002C10AE0F512845288B1E51280B1D5128EE
:100070008B122C10F8302E02031951282C1730083F
:1000800084000310800DAE0F4128F830AE00B00A96
:100090006030300247300319B000300826020319DF
:1000A000AC162B0884002A0E8300A90E290E090025
:1000B0004730B000A60084008001F830AE003A302E
:1000C000B800B9008316443081000E30850064000A
:1000D000FF2390008312AC01B501B301BE30A20032
:1000E000FE30A300EE21D02190308B0071224E30E3
:1000F00074225D3074221010CF308F002B308E00B0
:100100000C1031309000F221B50A03197122B70F9B
:100110008D28CE30B700FB30AC05B60FAD28F630D9
:10012000B600A5030F302505FB3EFA300319A507DD
:10013000A63025020318AD28FF30A500A4030F3018
:100140002405FB3EFA300319A40766302402031885
:10015000AD28FF30A4000C187B28AC1EB328AC12CD
:10016000083074226F222C1FB9282C1300307422FF
:100170006F22CE203908840038020319AB2891225F
:100180000319BA2826222C18AB282C1ECB28432270
:100190002C126722AB282A22800AAB28260884006A
:1001A000BD2103190800533027020319DB28270853
:1001B00085221821D028BD21031908002C302702E0
:1001C0000319E52853308522D328BD2103190800DF
:1001D0002708A800BD210319080027082807013EA9
:1001E000031D012928080339031D01291821FC30AA
:1001F000B30003308A000310A80C280CA80DBF3EE2
:10020000820026088400BD210319080027088522E2
:10021000BD210319080027088522BD210319080004
:1002200027088522BD2103190800270885226F228F
:100230000408A60008008030742228088522803037
:1002400074226F2AB3010800AC1DDA218A307422AF
:10025000163074226F2AAC19DA21EE211E30742276
:100260006F2AAC19CC21BE30A2008C307422113020
:100270007422193074226F2AEE21A20ABF302202A2
:10028000BE300318A20082307422273074222E3030
:1002900074226F2AEE21A203B9302202B930031C66
:1002A000A200843074222B3074226F2A0230AC06F4
:1002B00090307422343074226F2A0430AC06CE3071
:1002C000B7008E3074223B3074226F2AAC19E821BB
:1002D000EE21A3030F302305FB3EFA300319A307D9
:1002E00066302302FE30031CA300863074224030A7
:1002F00074226F2AAC19E821EE21A30A0F302305DE
:1003000006300319A307FF30230266300318A30049
:1003100088307422453074226F2ABE30A200923099
:1003200074227322623074226F2ABD30A20094308E
:1003300074227322643074226F2ABC30A20096307B
:1003400074227322663074226F2ABB30A20096306A
:1003500074227322683074226F2ABA30A200963059
:10036000742273226A3074226F2AB930A200963048
:10037000742273226C3074226F2A0408300203192D
:1003800008000008A700840A60300402031D08006A
:100390004730840003110800AC11A730B1000800F9
:1003A000AC11B030B100EC30B2000800AC15F03048
:1003B000B1000800AC15B430B1002E30B400E83004
:1003C000B2000800AC15CE30B100F630B200080023
:1003D000AC15E430B100F430B2000800FF30A500E5
:1003E000A400080002308A0031088200220811228D
:1003F000230811222408112225081122FB30AC1CED
:100400000F382C192F39112A66301122663011222B
:10041000A6301122B730112AB3080319112ADF3987
:10042000B30A2622A10A050820388500EF39A00D5D
:10043000031810388500DF39850096229622A10F17
:10044000142A5130013E031D222A0800A000F73073
:10045000A10008008B1305080138850000009822D0
:100460009822A10A03193C2AA00C031C2C2AFE394D
:10047000850098229822312A3D2AFE3985008B1763
:100480009D229D22080085108B13831685108312F0
:100490009A229A229A229A224D2AA10A03195C2AA8
:1004A000A00C031C452A8316851483129A229A22D3
:1004B0009A229A2200004D2A00000000831685141B
:1004C00083128B179C229C229C229C220800B90A32
:1004D000473039023A300319B900031508005D307E
:1004E000742A5330742A2F30A0000408A100380861
:1004F000840020088000B80A473038023A300319D7
:10050000B8002108840003150800A800280E0F3940
:10051000A1002107603E7422A80D28081E39603E04
:10052000742A03308A000008031182000000A22A06
:1005300000009F2A00009E2A9D2A9E2A9F2AA02A08
:10054000A12AA22AA32AA42AA52AA62A0800F630AC
:10055000B60074300C22F6218F3011227C300C2A28
:10056000B20FA72ADA21A72AF630B60034300C22BF
:10057000321CC22AF621EF3011223C300C22B20F7D
:100580000800E22934081122293034022E30031DDC
:100590003403B4000422FF301122BD2AF630B60025
:1005A00034300C22321CDC2AF621AE3011223C30D1
:1005B0000C22B20F0800D62922080F392038112248
:1005C0000422FF301122D72AF630B60034300C2234
:1005D000F621AE3011223C300C22B20F0800D62991
:0E05E00034300C22F621CF3011223C300C2A90
:100600006434613474346134653472347234672A0A
:100610006F3476346534723466346C346F347734C6
:10062000672A4D34443449345334672A4D344534B1
:100630004E34413442344C344534672A4D344934C5
:100640004E3451345534493452345934672A503475
:1006500052345634672A4E34583454345F344C3450
:10066000493453345434672A523441344E34443478
:100670004F344D34672A50344C3441345934672A4E
:100680004E34453458345434672A50345234453447
:10069000563449344F3455345334672A523449342C
:1006A0004E344734672A5634573443344434503434
:1006B0004934433432342E3437340D340A34672A03
:1006C0003034672A3134672A3234672A3334672A50
:1006D0003434672A3534672A3634672A3734672A30
:1006E0003834672A3934672A4134672A4234672A02
:1006F0004334672A4434672A4534672A4634672AD4
:100700002D34672A2C16C2342C16C1342C16C8344A
:100710002C16C4342C16E4342C1610342C16A034A9
:100720002C1649342C16D1342C16D2342C16D33432
:0E0730002C16D4342C16D5342C16D634BB041B
:02077E001B2935
:100780001B291B298D29312922293C291B291B2999
:100790001B291B29AD291B291B292B291B291B2997
:1007A0001B291B299D291B291B293C291B2956294B
:1007B0001B2966291B291B291B297A291B291B296F
:1007C0001B291B2995291B291B291B291B295D294D
:1007D0001B297A29B5291B291B291B291B291B2900
:1007E0001B291B29A5291B291B294A291B295629F5
:0E07F00024291B291B291B291B2966291B29CB
:02400E00C43FAD
:10420000560057004300440050004900430020007E
:104210004600690072006D00770061007200650061
:104220002000760032002E00370062000A004300B2
:104230006F00700079007200690067006800740008
:1042400020002800630029002000320030003000E8
:1042500032002D0032003000300034002C002000ED
:104260004500640077006100720064002000530084
:10427000630068006C0075006E00640065007200E9
:1042800020003C006500640040006B0039007300B2
:104290007000750064002E0063006F006D003E002A
:1042A0000A004C006900630065006E007300650041
:1042B0006400200075006E0064006500720020003C
:1042C00047004E0055002000470065006E00650065
:1042D000720061006C0020005000750062006C00EC
:1042E0006900630020004C006900630065006E00F7
:0E42F000730065002000760032002E000A00E8
:00000001FF
