:020000040000FA
:100000008501073099005828A900030EAA000108AD
:10001000AD000408AB008B1C342881018B1005193E
:1000200017280B118B16831601178312512883167C
:10003000011383128B1E51282C148B1264302D0255
:10004000031C2528E030AF003A2808302D02031C9D
:1000500051283008840027302D02800DAF0F312841
:100060002C10AE0F512845288B1E51280B1D5128EE
:100070008B122C10F8302E02031951282C1730083F
:1000800084000310800DAE0F4128F830AE00B00A96
:100090006030300247300319B000300826020319DF
:1000A000AC162B0884002A0E8300A90E290E090025
:1000B0004730B000A60084008001F830AE003A302E
:1000C000B800B9008316443081002C3085006400EC
:1000D000FF2390008312AC01B3014130A200013034
:1000E000A300F130B500F121D32190308B007522AF
:1000F0004E3078225E3078221010E7308F00953035
:100100008E000C1031309000F621B70F8B28CE30C6
:10011000B700FB30AC05B60FAE28B50F922875229C
:10012000F130B500EC30B600A50A0F3025050A3CC9
:1001300006300319A50760302502031CAE28A5016F
:10014000A40A0F3024050A3C06300319A407A03086
:100150002402031CAE28A4010C187C28AC1EB42871
:10016000AC120830782273222C1FBA282C130030CE
:1001700078227322CF203908840038020319AC2872
:1001800095220319BB282A222C18AC282C1ECC2817
:1001900047222C126B22AC282E22800AAC2826087B
:1001A0008400C02103190800533027020319DC28FA
:1001B000270889221921D128C021031908002C30D1
:1001C00027020319E62853308922D428C0210319B5
:1001D00008002708A800C0210319080027082807DD
:1001E000013E031D022928080339031D0229192194
:1001F000FC30B30003308A000310A80C280CA80DB3
:10020000BF3E820026088400C02103190800270889
:100210008922C0210319080027088922C021031957
:10022000080027088922C02103190800270889220D
:1002300073220408A6000800813078222808892249
:1002400081307822732AB3010800AC1DDD218B3088
:10025000782216307822732AAC19DD21F1211E3064
:100260007822732AAC19CF214130A2008D30782238
:100270001130782219307822732AF121A2030F302D
:1002800022050319A20A83307822273078222E30E3
:100290007822732AF121A20A46302202463003183E
:1002A000A200853078222B307822732A0230AC06E7
:1002B0009130782234307822732A8F3078223B3084
:1002C0007822732A0430AC06CE30B7008F30782203
:1002D0003B307822732AAC19EB21F121A30A0F30AD
:1002E00023050A3C06300319A307A030230201307E
:1002F0000318A3008730782240307822732AAC1983
:10030000EB21F1210F30230506300319A302A303CB
:1003100099300319A3008930782245307822732A56
:100320004130A20093307822772263307822732AFA
:100330004230A20095307822772265307822732AE5
:100340004330A20097307822772267307822732AD0
:100350004430A20097307822772269307822732ABD
:100360004530A2009730782277226B307822732AAA
:100370004630A2009730782277226D307822732A97
:1003800004083002031908000008A700840A60303E
:100390000402031D08004730840003110800AC115B
:1003A000AB30B1000800AC11B430B100EC30B20099
:1003B0000800AC15F430B1000800AC15B830B1003D
:1003C000D130B400E830B2000800AC15D230B10032
:1003D000F630B2000800AC15E830B100F430B200DD
:1003E0000800EC30B600A501A401080002308A0024
:1003F000310882002208152223081522240815221C
:10040000250815220030AC1804382C19D038152ACC
:100410009930152299301522593015224830152A65
:10042000B3080319152A2038B30A2A22A10A05089D
:1004300001388500FD39A00D031C02388500FE3906
:1004400085009A229A22A10F182A5130013E031DDD
:10045000262A0800A000F730A10008008B13050829
:1004600010388500A1229C22A10A0319402AA00C61
:10047000031C302AEF39000085009C22A222342A76
:10048000412AEF3985008B17A122A122080085128D
:100490008B138316851283129E229E229E229E22F9
:1004A000512AA10A0319602AA00C031C492A8316A9
:1004B000851683129E229E229E229E220000512A91
:1004C000000000008316851683128B17A022A0223D
:1004D000A022A0220800B90A473039023A30031995
:1004E000B900031508005E30782A5330782A2F307F
:1004F000A0000408A1003808840020088000B80A81
:10050000473038023A300319B80021088400031537
:100510000800A800280E0F39A1002107613E7822AB
:10052000A80D28081E39613E782A03308A00000889
:10053000031182000000A62A0000A32A0000A22ABC
:10054000A12AA22AA32AA42AA52AA62AA72AA82A37
:10055000A92AAA2A0800EC30B6008B301022FA2112
:10056000703015228330102AB20FAB2ADD21AB2A5E
:10057000EC30B600CB301022321CC62AFA211030E3
:100580001522C3301022B20F0800E52934081522C5
:10059000D6303402D130031D340AB40008220030B2
:1005A0001522C12AEC30B600CB301022321CE02AD2
:1005B000FA2151301522C3301022B20F0800D92978
:1005C00022080F39D0381522082200301522DB2AE4
:1005D000EC30B600CB301022FA2151301522C33056
:1005E0001022B20F0800D929CB301022FA21303066
:0605F0001522C330102AA1
:1006000064346134743461346534723472346B2A06
:100610006F3476346534723466346C346F347734C6
:100620006B2A4D344434493453346B2A4D344534A9
:100630004E34413442344C3445346B2A4D344934C1
:100640004E34513455344934523459346B2A503471
:10065000523456346B2A4E34583454345F344C344C
:100660004934533454346B2A523441344E34443474
:100670004F344D346B2A50344C34413459346B2A46
:100680004E344534583454346B2A50345234453443
:10069000563449344F34553453346B2A5234493428
:1006A0004E3447346B2A5634573443344434503430
:1006B0004934433432342E34373464340D340A34FC
:1006C0006B2A30346B2A31346B2A32346B2A333440
:1006D0006B2A34346B2A35346B2A36346B2A373420
:1006E0006B2A38346B2A39346B2A41346B2A4234F2
:1006F0006B2A43346B2A44346B2A45346B2A4634C4
:100700006B2A2D346B2A2C16C2342C16C1342C16AD
:10071000C8342C16C4342C16E4342C1610342C1681
:10072000A0342C1649342C16D1342C16D2342C1665
:10073000D3342C16D4342C16D5342C16D634BB0412
:02077E001C2934
:100780001C295D299029322923293D291C291C294E
:100790001C291C29B0291C291C292C291C291C298D
:1007A0001C291C29A0291C291C293D291C29562942
:1007B0001C296B291C291C291C297F291C291C295F
:1007C0001C291C2998291C291C291C291C2962293F
:1007D0001C297F29B8291C291C291C291C291C29F2
:1007E0001C291C29A8291C291C294A291C295629ED
:0E07F00025291C291C291C291C296B291C29C0
:02400E00C43FAD
:10420000560057004300440050004900430020007E
:104210004600690072006D00770061007200650061
:104220002000760032002E00370064000A004300B0
:104230006F00700079007200690067006800740008
:1042400020002800630029002000320030003000E8
:1042500032002D0032003000300035002C002000EC
:104260004B003900730070007500640020004C00A2
:104270004C0043002E000A004C00690063006500FA
:104280006E00730065006400200075006E0064001D
:1042900065007200200047004E00550020004700D6
:1042A00065006E006500720061006C002000500027
:1042B000750062006C006900630020004C0069001A
:1042C000630065006E007300650020007600320018
:1042D0002E000A007700770077002E006B0039006F
:1042E00073007000750064002E0063006F006D00A5
:0242F0000A00C2
:00000001FF
