:020000040000FA
:100000008501073099005828A900030EAA000108AD
:10001000AD000408AB008B1C342881018B1005193E
:1000200017280B118B16831601178312512883167C
:10003000011383128B1E51282C148B1264302D0255
:10004000031C2528E030AF003A2808302D02031C9D
:1000500051283008840027302D02800DAF0F312841
:100060002C10AE0F512845288B1E51280B1D5128EE
:100070008B122C10F8302E02031951282C1730083F
:1000800084000310800DAE0F4128F830AE00B00A96
:100090006030300247300319B000300826020319DF
:1000A000AC162B0884002A0E8300A90E290E090025
:1000B0004730B000A60084008001F830AE0039302F
:1000C000B700B8008316443081000E30850064000C
:1000D000FF2390008312AC01B301C601BE30A20021
:1000E000FE30A3009A2190308B001010CF308F008B
:1000F0002B308E000C1031309000B8210319B60F50
:100100008528CE30B600FB30AC05B50FAA28F630F6
:10011000B500C608031DC603AC1DA828A5030F30F3
:100120002505FB3EFA300319A507FF302502031809
:10013000AA28FF30A500A4030F302405FB3EFA30A7
:100140000319A407FF3024020318AA28FF30A400D3
:100150000C187528AC1EAD28AC122C1FB0282C131F
:10016000C6080319CD2038088400C608031DA82836
:1001700037020319A82838220319B3288318C62880
:10018000EC212C18A828F021800AA828EC212C1892
:10019000A828F221800A800AA8282608840087213E
:1001A00003190800533027020319DA2827082C22E4
:1001B0001621CF288721031908002C3027020319A4
:1001C000E42853302C22D22887210319080027085D
:1001D000A80087210319080027082807013E031DEE
:1001E000002928080339031D00291621FC30B3001B
:1001F00003308A000310A80C280CA80DBF3E820013
:100200002608840087210319080027082C2287214B
:100210000319080027082C22872103190800270842
:100220002C2287210319080027082C220408A60085
:1002300008000800B301080015221B301B22AC1D6A
:10024000A421732178210800AC19A4210800AC195D
:100250009621BE30A200FE30A300732102301B2283
:10026000782108008221080008007D21080015225D
:1002700026301B2273217821080073217821080081
:10028000AC19B2217D2178210800AC19B22182215C
:100290007821080078211522192231301B2208000C
:1002A000152219223E301B220800152219224B303C
:1002B0001B2208001522192258301B220800152283
:1002C00017228E301B2278211522192265301B221D
:1002D00008001522172293301B227821152219229B
:1002E00072301B2208001522172289301B220800B9
:1002F0001522172298301B220800152217227F3062
:100300001B2208001522172284301B220800040833
:100310003002031908000008A700840A60300402B4
:10032000031D08004730840003110800AC113E3063
:10033000B1000800AC114530B100EC30B20008004B
:10034000AC157F30B1000800AC154930B1002E303B
:10035000B400E830B2000800AC156130B100F630EE
:10036000B2000800AC157530B100F430B2000800DE
:1003700002308A00310882002208D7212308D721C1
:100380002408D7212508D721FB30AC1C0F382C19A5
:100390002F39D7296630D7216630D721A630D7210B
:1003A000B730D729B3080319D729DF39B30AEC21AD
:1003B000A10A050820388500EF39A00D0318103870
:1003C0008500DF398500AD23AD23A10FDA29513037
:1003D000013E031DE8290800A000F730A100080035
:1003E0008B13050885108B13831685108312AB239E
:1003F000AB23A10A0319052AA00C031CF4298316B8
:1004000085148312A023AB23F929062A83168514A9
:1004100083128B17AB239F230800B80A463038029B
:1004200039300319B8000315080008301B2A0D30B5
:100430001B2A14301B2AA0000408A10037088400DE
:1004400020088000B70A4630370239300319B70058
:100450002108840003150800A800280E0F39A10008
:100460002107003E1B22A80D28081E39003E1B2A2A
:1004700003308A0000080311831082007430D221F7
:10048000BC218F30D7217C30D229B20F3E2AA42143
:100490003E2A3430D221321C552ABC21EF30D721DC
:1004A0003C30D221B20F0800AC293408D7212930C2
:1004B00034022E30031D3403B400CA21FF30D7218B
:1004C000502A3430D221321C6D2ABC21AE30D721C3
:1004D0003C30D221B20F0800A02922080F39203861
:1004E000D721CA21FF30D721682A3430D221BC213C
:1004F000AE30D7213C30D221B20F0800A0293430D1
:0C050000D221BC21CF30D7213C30D229C1
:1006000030340D2A0330C6000D2A0130C6000D2AF1
:100610008314FF34831455340D2A83140334831454
:100620000234831400340D2A8314073483140434F1
:10063000831400340D2A8314033483140034831488
:100640000134831402348314FA340D2A83140334DE
:100650008314003483140134831404348314F83471
:100660000D2A831428348314003483140034831433
:100670000034831400348314CD340D2A83142834B9
:100680008314003483140034831400348314293415
:100690008314A4340D2A831428348314003483145F
:1006A0000034831400348314513483147C340D2AB1
:1006B00083142834831400348314003483140034E6
:1006C00083147834831455340D2A83142834831406
:1006D000003483140034831400348314A03483144E
:1006E0002D340D2A831428348314003483140034E9
:1006F000831400348314C834831405340D2A8314FE
:1007000008348314F3340D2A831410348314EB3427
:100710000D2A831401348314FA340D2A831402340D
:100720008314F9340D2A831404348314F7340D2A06
:10073000831400348314FB340D2ABB049F2BA02B9D
:10074000A12BA22BA32BA42BA52BA62BA72BA82B2D
:0E07500008000000A02B0000A12B0000A42B2D
:02077E00192937
:10078000192919294A2927291A29342919291929FE
:10079000192919295F2919291929242919291929F8
:1007A00019291929552919291929322919293729C6
:1007B00019294029192919291929452919291929D6
:1007C00019291929502919291929192919293D29BE
:1007D000192945296929192919291929192919298D
:1007E000192919295A29192919293529192937297E
:0E07F0001C2919291929192919294029192903
:02400E00C43FAD
:10420000690050006F0064002D0056005700200028
:104210004800650061006400200055006E006900E0
:104220007400200043006F006E00740072006F0085
:024230006C0020
:00000001FF
