:020000040000FA
:100000008501073099005828A900030EAA000108AD
:10001000AD000408AB008B1C342881018B1005193E
:1000200017280B118B16831601178312512883167C
:10003000011383128B1E51282C148B1264302D0255
:10004000031C2528E030AF003A2808302D02031C9D
:1000500051283008840027302D02800DAF0F312841
:100060002C10AE0F512845288B1E51280B1D5128EE
:100070008B122C10F8302E02031951282C1730083F
:1000800084000310800DAE0F4128F830AE00B00A96
:100090006030300247300319B000300826020319DF
:1000A000AC162B0884002A0E8300A90E290E090025
:1000B0004730B000A60084008001F830AE0039302F
:1000C000B700B8008316443081000E30850064000C
:1000D000FF2390008312AC01B301C601BE30A20021
:1000E000FE30A300A42190308B001010CF308F0081
:1000F0002B308E000C1031309000C2210319B60F46
:100100008528CE30B600FB30AC05B50FAA28F630F6
:10011000B500C608031DC603AC1DA828A5030F30F3
:100120002505FB3EFA300319A507FF302502031809
:10013000AA28FF30A500A4030F302405FB3EFA30A7
:100140000319A407FF3024020318AA28FF30A400D3
:100150000C187528AC1EAD28AC122C1FB0282C131F
:10016000C6080319CD2038088400C608031DA82836
:1001700037020319A82846220319B3288318C62872
:10018000F6212C18A828FA21800AA828F6212C1874
:10019000A828FC21800A800AA8282608840091212A
:1001A00003190800533027020319DA2827083A22D6
:1001B0001621CF289121031908002C30270203199A
:1001C000E42853303A22D228912103190800270845
:1001D000A80091210319080027082807013E031DE4
:1001E000002928080339031D00291621FC30B3001B
:1001F00003308A000310A80C280CA80DBF3E820013
:100200002608840091210319080027083A22912129
:100210000319080027083A2291210319080027082A
:100220003A2291210319080027083A220408A6005F
:1002300008000800B30108001F2226302922AC1D47
:10024000AE2178217D210800AC19AE210800AC193F
:10025000A021BE30A200FE30A30078210230292266
:100260007D2108000800080008001F226E302922A6
:100270001F223130292278217D21080078217D211B
:100280000800AC19BC2182217D2108001F227B308F
:100290002922AC19BC2187217D2108001F2223229D
:1002A0002522503029228C2108001F2223222522BA
:1002B000553029228C2108001F22232225225A3062
:1002C00029228C2108001F22232225225F30292287
:1002D0008C2108001F2223222522643029228C2110
:1002E00008001F2223222522693029228C210800A0
:1002F0001F2221229230292208001F222122A13010
:10030000292208001F2221228830292208001F22CA
:1003100021228D30292208001F2227223C30292249
:10032000080004083002031908000008A700840A26
:1003300060300402031D08004730840003110800E8
:10034000AC114C30B1000800AC115330B100EC30AE
:10035000B2000800AC158D30B1000800AC15573064
:10036000B1002E30B400E830B2000800AC156F3098
:10037000B100F630B2000800AC158330B100F430A3
:10038000B200080002308A00310882002208E12110
:100390002308E1212408E1212508E121FB30AC1CE0
:1003A0000F382C192F39E1296630E1216630E1211F
:1003B000A630E121B730E129B3080319E129DF397B
:1003C000B30AF621A10A050820388500EF39A00DEF
:1003D000031810388500DF398500B623B623A10F36
:1003E000E4295130013E031DF2290800A000F73036
:1003F000A10008008B13050885108B138316851048
:100400008312B423B423A10A03190F2AA00C031CDE
:10041000FE29831685148312A923B423032A102AE4
:100420008316851483128B17B423A8230800B80AF7
:100430004630380239300319B80003150800083077
:10044000292A0D30292A1430292A4930292A1F3017
:10045000292AA0000408A100370884002008800091
:10046000B70A4630370239300319B7002108840033
:1004700003150800A800280E0F39A1002107003E2F
:100480002922A80D28081E39003E292A03308A0097
:1004900000080311831082007430DC21C6218F30E4
:1004A000E1217C30DC29B20F4C2AAE214C2A3430B9
:1004B000DC21321C632AC621EF30E1213C30DC21F3
:1004C000B20F0800B6293408E121293034022E3059
:1004D000031D3403B400D421FF30E1215E2A3430FF
:1004E000DC21321C7B2AC621AE30E1213C30DC21EC
:1004F000B20F0800AA2922080F392038E121D4219F
:10050000FF30E121762A3430DC21C621AE30E121F2
:100510003C30DC21B20F0800AA293430DC21C6218E
:08052000CF30E1213C30DC2961
:100600003034172A0330C600172A0130C600172AD3
:100610008314FF3483145534172A8314033483144A
:10062000023483140034172A8314083483140434E6
:10063000831400348314173483140134172A831469
:1006400007348314043483140034172A83140334C6
:100650008314003483140134831402348314FA3471
:10066000172A83140334831400348314013483144D
:1006700004348314F834172A831428348314003480
:100680008314003483140034831400348314CD3471
:10069000172A831400348314003483140034172A77
:1006A000831400348314DC34172A83140134831434
:1006B000DB34172A831402348314DA34172A8314A0
:1006C00003348314D934172A831404348314D8349C
:1006D000172A831405348314D734172A8314043457
:1006E000831404348314003483142E3483140134AB
:1006F0008314C934172A83140434831404348314F0
:10070000003483142E34831400348314CA34172A1B
:10071000831408348314F334172A83141034831495
:10072000EB34172A831401348314FA34172A831400
:1007300002348314F934172A831404348314F734ED
:10074000172A831400348314FB34172ABB04A82B04
:10075000A92BAA2BAB2BAC2BAD2BAE2BAF2BB02BDD
:10076000B12B08000000A92B0000AA2B0000AD2B24
:02077E00192937
:10078000192919294E2927291A29332919291929FB
:10079000192919296A2919291929242919291929ED
:1007A000192919295C2919291929322919293529C1
:1007B00019294129192919291929462919291929D4
:1007C00019291929552919291929192919293E29B8
:1007D0001929462971291929192919291929192984
:1007E0001929192963291929192934291929352978
:0E07F0001C2919291929192919294129192902
:02400E00C43FAD
:10420000690050006F0064002D0056005700200028
:104210004800650061006400200055006E006900E0
:104220007400200043006F006E00740072006F0085
:024230006C0020
:00000001FF
