:020000040000FA
:100000008501073099005828AB00030EAC000108A9
:10001000AF000408AD008B1C342881018B1005193A
:1000200017280B118B16831601178312512883167C
:10003000011383128B1E51282E148B1264302F0251
:10004000031C2528E030B1003A2808302F02031C99
:1000500051283208840027302F02800DB10F31283B
:100060002E10B00F512845288B1E51280B1D5128EA
:100070008B122E10F8303002031951282E17320837
:1000800084000310800DB00F4128F830B000B20A90
:100090006030320247300319B200320827020319D8
:1000A000AE162D0884002C0E8300AB0E2B0E09001B
:1000B0004730B200A70084008001F830B0003A3029
:1000C000B800B90083160C3085006400443081000C
:1000D000FF23900083120030A300BE30A200FE3048
:1000E000A4000130B300AE01B50190308B00FC22BA
:1000F0007B30FF228A30FF22BC22C720F523B50ABD
:100100000319FC22B70F8828CE30B700FB30AE05AC
:10011000B60FA828F630B600A6030F302605FB3E22
:10012000FA300319A607A63026020318A828FF30C4
:10013000A600A5030F302505FB3EFA300319A507DD
:10014000663025020318A828FF30A5000C187D286A
:10015000AE1EAE28AE123530FF22FA222E1FB42872
:100160002E132D30FF22FA22D020390884003802C5
:100170000319A628C3200319B528D5222E18A628AE
:10018000D922800AA62803308A00000882001010B5
:10019000CF308F002B308E000C10313090000800D3
:1001A0002708840054220319080053302802031939
:1001B000DD28280810233521D228542203190800ED
:1001C0002C3028020319E72853301023D528542255
:1001D000031908002808A900542203190800280858
:1001E000AA00D32103193529B12103193529A221E8
:1001F000031935298C21031935297A210319352949
:10020000662103193529F42103193529042203191C
:1002100035291422031935292422031935293422BA
:1002200003193529442203193529382103193529A1
:10023000522103193529472103193529270884003C
:100240005422031908002808102354220319080017
:1002500028081023542203190800280810235422C8
:100260000319080028081023FA220408A700080030
:10027000E4302902031D08001B302A02031D080078
:100280000130330203196B224330FF22FA2A38303F
:100290002902031D0800C7302A02031D08004B3045
:1002A000FF22FA2A10302902031D0800EF302A022B
:1002B000031D0800BE30A2000130B300BC22003094
:1002C000A3003E30FF224630FF22FA2A583029028E
:1002D000031D0800A7302A02031D0800BC22A20A41
:1002E000BF302202BE300318A2005430FF225B3020
:1002F000FF22FA2AD8302902031D080027302A02DB
:10030000031D0800BC22A203B9302202B930031C2D
:10031000A2005830FF22FA2A60302902031D9929D1
:100320009F302A02031D08000230AE066130FF2212
:10033000FA2AE0302902031D08001F302A0203199F
:1003400094290800A0302902031D08005F302A020A
:10035000031D08000430AE06CE30B7006830FF221F
:10036000FA2AF8302902031DCA2907302A02031D80
:1003700008009322BC22A4030F302405FB3EFA3070
:100380000319A407663024026630031CA4006D30F4
:10039000FF22FA2A68302902031D080097302A023A
:1003A0000319B929080078302902031DEB29873089
:1003B0002A02031D08009322BC22A40A0F30240540
:1003C00006300319A407FF302402FE300318A400EE
:1003D0007230FF22FA2AA8302902031D0800573084
:1003E0002A020319DB2908000C302902031D08002A
:1003F000F3302A02031D0800BE30A2009322BC2263
:10040000FE228F30FF22FA2A8C302902031D0800B9
:1004100073302A02031D08009322BC22BD30A200C3
:10042000FE229130FF22FA2A4C302902031D0800D7
:10043000B3302A02031D08009322BC22BC30A20064
:10044000FE229330FF22FA2ACC302902031D080035
:1004500033302A02031D08009322BC22BB30A200C5
:10046000FE229530FF22FA2A2C302902031D0800B3
:10047000D3302A02031D08009322BC22BA30A20006
:10048000FE229730FF22FA2AAC302902031D080011
:1004900053302A02031D08009322BC22B930A20067
:1004A000FE229930FF22FA2A0408320203190800BA
:1004B0000008A800840A60300402031D08004730C9
:1004C0008400031108007430C022A2228F30C022A1
:1004D0007C30C02208000230B300FE30B4000800B7
:1004E0009430C022A222AE30C0229C30C022B40F71
:1004F00008000330B300EC30B40008003430C022F0
:10050000A222AE30C0223C30C022B40F0800932A91
:100510000430B30008003430C022A222CF30C02201
:100520003C30C02208000530B300FE30B4000800A3
:100530001430C022A222FF30C0221C30C022B40FCF
:100540000800882A2F30230222080318AE2AA30AA3
:10055000293023022208031CAE2A2308C0222408C3
:10056000C0222508C0222608C022FB30AE1C0F384E
:100570002E192F39C0220800FF30A600A500080060
:10058000D522A10A050820388500EF39A00D0318EF
:1005900010388500DF3985001C231C23A10FC32AD6
:1005A0005130013E031DD12A0800A000F730A10000
:1005B00008008B1305080138850000001E231E2348
:1005C000A10A0319EB2AA00C031CDB2AFE398500C3
:1005D0001E231E23E02AEC2AFE3985008B172323D5
:1005E00023230800B90A473039023A300319B90009
:1005F000031508008A30FF2A8030FF2A5C30A000F3
:100600000408A1003808840020088000B80A473098
:1006100038023A300319B800210884000315080095
:10062000A900290E0F39A10021078D3EFF22A90D37
:1006300029081E398D3EFF2A0000282B0000252B9B
:100640000000242B232B242B252B262B272B282B78
:10065000292B2A2B2B2B2C2B080064346134743467
:100660006134653472347234F22A6F34763465340E
:10067000723466346C346F347734F22A4D34443437
:1006800049345334F22A4D3445344E3441344234E3
:100690004C344534F22A4D3449344E3451345534B7
:1006A000493452345934F22A503452345634F22AEE
:1006B0004E34583454345F344C3449345334543405
:1006C000F22A523441344E3444344F344D34F22AF9
:1006D00050344C3441345934F22A4E344534583471
:1006E0005434F22A503452344534563449344F3459
:1006F00055345334F22A523449344E344734F22AB2
:100700005634573443344434503449344334323407
:100710002E3436340D340A34F22A3034F22A31348D
:10072000F22A3234F22A3334F22A3434F22A3534BB
:10073000F22A3634F22A3734F22A3834F22A39349B
:10074000F22A4134F22A4234F22A4334F22A44345F
:0C075000F22A4534F22A4634F22A7200E4
:0607EA0003308A00330811
:0E07F00082070000632A702A7E2A8B2A982A2C
:02400E00C43FAD
:10420000560057004300440050004900430020007E
:104210004600690072006D00770061007200650061
:104220002000760032002E00360064000A004300B1
:104230006F00700079007200690067006800740008
:1042400020002800630029002000320030003000E8
:1042500032002D0032003000300034002C002000ED
:104260004500640077006100720064002000530084
:10427000630068006C0075006E00640065007200E9
:1042800020003C006500640040006B0039007300B2
:104290007000750064002E0063006F006D003E002A
:1042A0000A004C006900630065006E007300650041
:1042B0006400200075006E0064006500720020003C
:1042C00047004E0055002000470065006E00650065
:1042D000720061006C0020005000750062006C00EC
:1042E0006900630020004C006900630065006E00F7
:0E42F000730065002000760032002E000A00E8
:00000001FF
