:020000040000FA
:100000008501073099005828A900030EAA000108AD
:10001000AD000408AB008B1C342881018B1005193E
:1000200017280B118B16831601178312512883167C
:10003000011383128B1E51282C148B1264302D0255
:10004000031C2528E030AF003A2808302D02031C9D
:1000500051283008840027302D02800DAF0F312841
:100060002C10AE0F512845288B1E51280B1D5128EE
:100070008B122C10F8302E02031951282C1730083F
:1000800084000310800DAE0F4128F830AE00B00A96
:100090006030300247300319B000300826020319DF
:1000A000AC162B0884002A0E8300A90E290E090025
:1000B0004730B000A60084008001F830AE003A302E
:1000C000B800B9008316443081000E30850064000A
:1000D0009F01FF2390008312AC01B501B301BE3034
:1000E000A200FE30A300EF21D12190308B007222BC
:1000F0004E3075225D3075221010CF308F002B30BE
:100100008E000C1031309000F321B50A03197222D1
:10011000B70F8E28CE30B700FB30AC05B60FAE2837
:10012000F630B600A5030F302505FB3EFA30031963
:10013000A507A63025020318AE28FF30A500A403AA
:100140000F302405FB3EFA300319A4076630240261
:100150000318AE28FF30A4000C187C28AC1EB4286D
:10016000AC120830752270222C1FBA282C130030D4
:1001700075227022CF203908840038020319AC2878
:1001800092220319BB2827222C18AC282C1ECC281D
:1001900044222C126822AC282B22800AAC28260884
:1001A0008400BE2103190800533027020319DC28FC
:1001B000270886221921D128BE21031908002C30D6
:1001C00027020319E62853308622D428BE210319BA
:1001D00008002708A800BE210319080027082807DF
:1001E000013E031D022928080339031D0229192194
:1001F000FC30B30003308A000310A80C280CA80DB3
:10020000BF3E820026088400BE210319080027088B
:100210008622BE210319080027088622BE21031961
:10022000080027088622BE21031908002708862215
:1002300070220408A6000800803075222808862253
:1002400080307522702AB3010800AC1DDB218A3092
:10025000752216307522702AAC19DB21EF211E3071
:100260007522702AAC19CD21BE30A2008C307522C7
:100270001130752219307522702AEF21A20ABF3081
:100280002202BE300318A200823075222730752268
:100290002E307522702AEF21A203B9302202B93024
:1002A000031CA200843075222B307522702A023084
:1002B000AC069030752234307522702A0430AC06BA
:1002C000CE30B7008E3075223B307522702AAC19C3
:1002D000E921EF21A3030F302305FB3EFA30031978
:1002E000A30766302302FE30031CA300863075226C
:1002F00040307522702AAC19E921EF21A30A0F3092
:10030000230506300319A307FF30230266300318C4
:10031000A3008830752245307522702ABE30A200B5
:1003200092307522742262307522702ABD30A2008C
:1003300094307522742264307522702ABC30A20079
:1003400096307522742266307522702ABB30A20066
:1003500096307522742268307522702ABA30A20055
:100360009630752274226A307522702AB930A20044
:100370009630752274226C307522702A040830027F
:10038000031908000008A700840A60300402031D56
:1003900008004730840003110800AC11A830B100F8
:1003A0000800AC11B130B100EC30B2000800AC155F
:1003B000F130B1000800AC15B530B1002E30B400FA
:1003C000E830B2000800AC15CF30B100F630B20012
:1003D0000800AC15E530B100F430B2000800FF3081
:1003E000A500A400080002308A003108820022081B
:1003F0001222230812222408122225081222FB307E
:10040000AC1C0F382C192F39122A66301222663094
:100410001222A6301222B730122AB3080319122A68
:10042000DF39B30A2722A10A050820388500EF39F1
:10043000A00D031810388500DF3985009722972218
:10044000A10F152A5130013E031D232A0800A000E8
:10045000F730A10008008B13050801388500000063
:1004600099229922A10A03193D2AA00C031C2D2AC6
:10047000FE39850099229922322A3E2AFE398500CA
:100480008B179E229E22080085108B1383168510E1
:1004900083129B229B229B229B224E2AA10A031994
:1004A0005D2AA00C031C462A8316851483129B2206
:1004B0009B229B229B2200004E2A000000008316F4
:1004C000851483128B179D229D229D229D22080058
:1004D000B90A473039023A300319B9000315080048
:1004E0005D30752A5330752A2F30A0000408A10012
:1004F0003808840020088000B80A473038023A30B3
:100500000319B8002108840003150800A800280E6C
:100510000F39A1002107603E7522A80D28081E3959
:10052000603E752A03308A00000803118200000033
:10053000A32A0000A02A00009F2A9E2A9F2AA02A00
:10054000A12AA22AA32AA42AA52AA62AA72A080001
:10055000F630B60074300D22F7218F3012227C3035
:100560000D2AB20FA82ADB21A82AF630B6003430B3
:100570000D22321CC32AF721EF3012223C300D220B
:10058000B20F0800E32934081222293034022E3039
:10059000031D3403B4000522FF301222BE2AF630B8
:1005A000B60034300D22321CDD2AF721AE30122283
:1005B0003C300D22B20F0800D72922080F3920380D
:1005C00012220522FF301222D82AF630B60034302B
:1005D0000D22F721AE3012223C300D22B20F08005E
:1005E000D72934300D22F721CF3012223C300D2A8A
:100600006434613474346134653472347234682A09
:100610006F3476346534723466346C346F347734C6
:10062000682A4D34443449345334682A4D344534AF
:100630004E34413442344C344534682A4D344934C4
:100640004E3451345534493452345934682A503474
:1006500052345634682A4E34583454345F344C344F
:10066000493453345434682A523441344E34443477
:100670004F344D34682A50344C3441345934682A4C
:100680004E34453458345434682A50345234453446
:10069000563449344F3455345334682A523449342B
:1006A0004E344734682A5634573443344434503433
:1006B0004934433432342E3437340D340A34682A02
:1006C0003034682A3134682A3234682A3334682A4C
:1006D0003434682A3534682A3634682A3734682A2C
:1006E0003834682A3934682A4134682A4234682AFE
:1006F0004334682A4434682A4534682A4634682AD0
:100700002D34682A2C16C2342C16C1342C16C83449
:100710002C16C4342C16E4342C1610342C16A034A9
:100720002C1649342C16D1342C16D2342C16D33432
:0E0730002C16D4342C16D5342C16D634BB041B
:02077E001C2934
:100780001C291C298E29322923293D291C291C2991
:100790001C291C29AE291C291C292C291C291C298F
:1007A0001C291C299E291C291C293D291C29572943
:1007B0001C2967291C291C291C297B291C291C2967
:1007C0001C291C2996291C291C291C291C295E2945
:1007D0001C297B29B6291C291C291C291C291C29F8
:1007E0001C291C29A6291C291C294B291C295729ED
:0E07F00025291C291C291C291C2967291C29C4
:02400E00C43FAD
:10420000560057004300440050004900430020007E
:104210004600690072006D00770061007200650061
:104220002000760032002E00370062000A004300B2
:104230006F00700079007200690067006800740008
:1042400020002800630029002000320030003000E8
:1042500032002D0032003000300034002C002000ED
:104260004500640077006100720064002000530084
:10427000630068006C0075006E00640065007200E9
:1042800020003C006500640040006B0039007300B2
:104290007000750064002E0063006F006D003E002A
:1042A0000A004C006900630065006E007300650041
:1042B0006400200075006E0064006500720020003C
:1042C00047004E0055002000470065006E00650065
:1042D000720061006C0020005000750062006C00EC
:1042E0006900630020004C006900630065006E00F7
:0E42F000730065002000760032002E000A00E8
:00000001FF
