:020000040000FA
:020000005D2879
:08000800AA00030EAB00010881
:10001000B0000408AC008B1C312881018B1006183D
:1000200017280B118B168316011783125628831677
:10003000011383128B1E56288B123208840027303E
:100040003002800CB10F5628840AF830B100F0302D
:100050000402031D2D28A030840080010408B20092
:1000600056280B1C44280B102F15861F4428AE0160
:10007000F8303A230310861F0314AE0C4023013ED0
:10008000031D3A2800002F158B1E56280B1D5628DD
:100090008B122F14F830B100B20AF0303202031D77
:1000A0005328A030B2003208840080012C0884005C
:1000B0002B0E8300AA0E2A0E09004030850086010F
:1000C000A030B200A50084008001F830B1000730F4
:1000D0009F0083160613861006110612851105115E
:1000E000051364004430810083120030A300BE3049
:1000F000A200FE30A4000130B300AF01B5010B1027
:100100008B100B168B158B179920AE200C140C1C22
:100110008E28F6239020B50A03199920B720872846
:10012000101029308F0027308E000C100130900005
:1001300008005630212357302123433021234430F7
:1001400021235030212349302123433021233130D2
:1001500021232E30212335302123A229523021237F
:10016000493021234E30212347302123A22925085D
:10017000840089220319080095302602031DB9283E
:1001800089220319080069302602031DBC28892230
:10019000031908002608A700892203190800260869
:1001A000A80089220319080080302602031D232994
:1001B000FF2103192029D92103192029C821031956
:1001C0002029A821031920298421031920296F211E
:1001D000031920292C22031920293A220319202946
:1001E00048220319202956220319202964220319C1
:1001F0002029722203192029262103192029582198
:10020000031920293E210319202925088400892269
:10021000031908002608122389220319080026085A
:1002200012238922031908002608122389220319A0
:100230000800260812238922031908002608122321
:100240000408A50008000230A50708004E30270268
:10025000031D0800B0302802031D0800A5224D3000
:100260002123453021234E302123413021234230A8
:1002700021234C30212345302123A2293830270265
:10028000031D0800C6302802031D0800CC224D3093
:100290002123493021234E30212351302123553051
:1002A0002123493021235230212359302123A229EF
:1002B00010302702031D0800EE302802031D08003D
:1002C000BE30A2000130B3000030A3004D30212326
:1002D0004430212349302123533021233529343020
:1002E0002702031D0800CA302802031D0800A20AC5
:1002F000BF302202BE300318A200503021235230FA
:10030000212356302123982936302702031D080067
:10031000C8302802031D0800A203B9302202B930F8
:10032000031CA2004E3021235830212354302123B6
:100330005F3021234C3021234930212353302123A6
:10034000543021230D3021230A30212303150800C6
:100350000C302702031DBF29F2302802031D0800BC
:100360000230AF0652302123413021234E30212369
:10037000443021234F3021234D302123A2290E3038
:100380002702031D0800F03028020319B0290800D5
:100390000A302702031D0800F4302802031D08005C
:1003A000503021234C302123413021235930212347
:1003B000A2293E302702031DF629C0302802031D62
:1003C0000800A4030F302405FB3EFA300319A407EC
:1003D000663024026630031CA4004E3021234530D1
:1003E00021235830212354302123A2292C302702E5
:1003F000031D0800D23028020319E12908003C300F
:100400002702031D232AC2302802031D0800A40A64
:100410000F30240506300319A407FF302402FE30F4
:100420000318A400503021235230212345302123CA
:1004300056302123493021234F30212355302123A9
:1004400053302123A2292A302702031D0800D4306B
:1004500028020319072A080060302702031D08003C
:100460009E302802031D0800BE30A20080223130D9
:100470002123A22962302702031D08009C30280294
:10048000031D0800BD30A200802232302123A229A2
:1004900064302702031D08009A302802031D08005B
:1004A000BC30A200802233302123A22966302702EB
:1004B000031D080098302802031D0800BB30A2006D
:1004C000802234302123A22968302702031D08002E
:1004D00096302802031D0800BA30A2008022353071
:1004E0002123A2296A302702031D08009430280224
:1004F000031D0800B930A200802236302123A22932
:100500004C302123493021235330212354302123DF
:10051000080004083202031908000008A600840A33
:10052000F0300402031D0800A0308400031108000D
:100530000730013E031D992A08007430FC22E42292
:100540008F30FC227C30FC2208000230B300FE30E9
:10055000B40008009430FC22E422AE30FC229C302F
:10056000FC22B40F08000330B300EC30B4000800E4
:100570003430FC22E422AE30FC223C30FC22B40FAA
:1005800008000430B30008003430FC22E422CF30ED
:10059000FC223C30FC2208000530B300FE30B400E1
:1005A00008001430FC222E30FC22FF30FC22FF30E9
:1005B000FC22FF30FC22FF30FC22FF30FC221C30EA
:1005C000FC22B40F0800C12A1F302302220803189E
:1005D000F02AA30A193023022208031CF02A230858
:1005E000FC222408FC22FF30FC22FF30FC22FB30DE
:1005F000AF1C0F38FC220800A000F830A900050845
:100600008B1308388500FB39A00D031804388500CA
:10061000F7398500A90F012B8B17AC30013E031D64
:100620000E2B0800A100210E0F39F63E0318073EDD
:100630003A3E212321080F39F63E0318073E3A3E81
:10064000212BA000F730A9008B1306084038860044
:1006500000004123A90A0319342BA00C031C262BEC
:10066000BF39860041232A2B352BBF398600402312
:100670008B1708003B2B3C2B3D2B3E2B3F2B402B5D
:10068000412B422B432B442B452B462B472B482BEE
:10069000492B4A2B4B2B4C2B4D2B4E2B4F2B502B9E
:0A06A000512B522B532B542B080052
:0407EC0003308A004C
:1007F0003308820700009D2AAA2AB82AC42AD12ACF
:02400E00503F21
:00000001FF
