:020000040000FA
:10000000850107309F005828A900030EAA000108A7
:10001000AD000408AB008B1C342881018B1006183E
:1000200017280B118B16831601178312512883167C
:10003000011383128B1E51282C148B1264302D0255
:10004000031C2528E030AF003A2808302D02031C9D
:1000500051283008840027302D02800DAF0F312841
:100060002C10AE0F512845288B1E51280B1D5128EE
:100070008B122C10F8302E02031951282C1730083F
:1000800084000310800DAE0F4128F830AE00B00A96
:100090006030300247300319B000300826020319DF
:1000A000AC162B0884002A0E8300A90E290E090025
:1000B000403085004730B000A60084008001F83051
:1000C000AE003A30B800B9008316C4308100033066
:1000D0008600850164008312AC01B501B301C6013D
:1000E000BE30A200FE30A3001422F62190308B0017
:1000F0008F2243309222523092221010CF308F0044
:100100002B308E000C10313090001822B50A0319E4
:100110008F22B70F8F28CE30B700FB30AC05B60F5B
:10012000B428F630B600C608031DC603AC1DB228BD
:10013000A5030F302505FB3EFA300319A507A630AD
:1001400025020318B428FF30A500A4030F302405AE
:10015000FB3EFA300319A407663024020318B428C2
:10016000FF30A4000C187D28AC1EBA28AC12033056
:1001700092228D222C1FC0282C13003092228D2217
:10018000C6080319DD2039088400C608031DB228FB
:1001900038020319B228AF220319C3288318D628BE
:1001A0004C222C18B2285022800AB2284C222C183B
:1001B000B2286822800A800AB22826088400E32137
:1001C00003190800533027020319EA282708A3223D
:1001D0002721DF28E321031908002C302702031907
:1001E000F4285330A322E228E3210319080027084A
:1001F000A800E3210319080027082807013E031D72
:10020000102928080339031D10292721FC30B300C9
:1002100003308A000310A80C280CA80DBF3E8200F2
:1002200026088400E321031908002708A322E321FC
:10023000031908002708A322E3210319080027084F
:10024000A322E321031908002708A3228D22040812
:10025000A6000800753092222808A3227530922249
:100260008D2AB30108000B3092228D22AC1D3C294F
:100270008B2297309222080000228B229230922209
:100280007A3092228B22923092228B2297309222C5
:100290000800AC1900221422133092228D2AAC19C6
:1002A000F221BE30A2008B2292309222063092229E
:1002B0000E3092228D22773092228B22973092221A
:1002C00008001422A20ABF302202BE300318A20086
:1002D0008B228D3092221C309222233092228D2A42
:1002E0001422A203B9302202B930031CA2008B22CF
:1002F00088309222203092228D2A0230AC0629309A
:1003000092228D2A0430AC06CE30B7008B22923078
:100310009222303092228D228B2297309222080036
:10032000AC190E221422A3030F302305FB3EFA3032
:100330000319A30766302302FE30031CA3008B229F
:10034000883092228B2297309222353092228D2A49
:10035000AC190E221422A30A0F302305063003190C
:10036000A307FF30230266300318A3008B228D30D1
:1003700092228B22973092223A3092228D2ABE30DE
:10038000A2009122573092228D2ABD30A2009122E4
:10039000593092228D2ABC30A20091225B309222E9
:1003A0008D2ABB30A20091225D3092228D2ABA3074
:1003B000A20091225F3092228D2AB930A2009122B0
:1003C000613092228D2A04083002031908000008C7
:1003D000A700840A60300402031D0800473084002F
:1003E00003110800AC11B530B1000800AC11BC30ED
:1003F000B100EC30B2000800AC15F630B1000800D6
:10040000AC15C030B1002E30B400E830B2000800A6
:10041000AC15D830B100F630B2000800AC15EC30A5
:10042000B100F430B2000800FF30A500A4000800BD
:1004300002308A003108820022083722230837223E
:100440002408372225083722FB30AC1C0F382C1922
:100450002F39372A6630372266303722A6303722C6
:10046000B730372AB3080319372ADF39B30A4C22C9
:10047000A10A050808388500FB39A00D03180438C7
:100480008500F7398500AD23AD23A10F3A2A5130FD
:10049000013E031D482A0800A000F730A100080013
:1004A0008B130608403886009F23AB23A10A03194B
:1004B000612AA00C031C522ABF398600AB23AB2350
:1004C000562A622ABF3986008B179F239F23080074
:1004D00086108B13831686108312AB23AB23A10ADD
:1004E00003197B2AA00C031C6A2A83168614831224
:1004F000A023AB236F2A7C2A8316861483128B17C2
:10050000AB239F230800B90A463039023A30031959
:10051000B900031508007D30922A5230922A4830E3
:10052000922A2430A0000408A10038088400200882
:100530008000B80A463038023A300319B800210862
:10054000840003150800A800280E0F39A100210718
:10055000553E9222A80D28081E39553E922A033096
:100560008A000008031183108200743032221C229A
:100570008F3037227C30322AB20FB52A0022B52ABA
:1005800034303222321CCC2A1C22EF3037223C304D
:100590003222B20F0800082A3408372229303402E8
:1005A0002E30031D3403B4002A22FF303722C72A1D
:1005B00034303222321CE42A1C22AE3037223C3046
:1005C0003222B20F0800FC2922080F3920383722C6
:1005D0002A22FF303722DF2A343032221C22AE306A
:1005E00037223C303222B20F0800FC29343032224C
:0A05F0001C22CF3037223C30322AA3
:1006000064346534832A6F346634832A4D34443429
:1006100049345334832A4D3445344E3441344234C2
:100620004C344534832A4D3449344E345134553496
:10063000493452345934832A503452345634832A3C
:100640004E34583454345F344C3449345334543475
:10065000832A523441344E3444344F344D34832A47
:1006600050344C3441345934832A4E344534583450
:100670005434832A503452344534563449344F3438
:1006800055345334832A523449344E344734832A00
:100690005634573443344434503449344334323478
:1006A0002E3438340D340A34832A3034832A3134DA
:1006B000832A3234832A3334832A3434832A3534E8
:1006C000832A3634832A3734832A3834832A3934C8
:1006D000832A4134832A4234832A4334832A44348C
:1006E000832A4534832A4634832A2D34832A0330CF
:1006F000C600832A0130C600832A8314FF34831482
:100700005534831403348314023483140034832A4D
:10071000831408348314F334832A83141034831429
:10072000EB34832A831401348314FA34832A00348B
:10073000831400348314FB34832A75079F2BA02B6A
:10074000A12BA22BA32BA42BA52BA62BA72BA82B2D
:0E07500008000000A02B0000A12B0000A42B2D
:02077E002A2926
:100780002A292A29BF294F29312961292A292A29D9
:100790002A292A29D7292A292A2949292A292A29F5
:1007A0002A292A29CB292A292A2961292A297D2986
:1007B0002A2990292A292A292A29A8292A292A29BD
:1007C0002A292A29C5292A292A292A292A2982299E
:1007D0002A29A829DD292A292A292A292A292A2950
:1007E0002A292A29D1292A292A2970292A297D2931
:0E07F00033292A292A292A292A2990292A2947
:02400E00D03FA1
:10420000560057004300440050004900430020007E
:104210004600690072006D00770061007200650061
:104220002000760032002E00380070007200650019
:1042300033000A0043006F007000790072006900CB
:104240006700680074002000280063002900200037
:1042500032003000300032002D00320030003000DB
:1042600034002C002000450064002000530063004F
:1042700068006C0075006E0064006500720020002C
:104280003C006500640040006B0039007300700062
:10429000750064002E0063006F006D003E000A0090
:1042A0004C006900630065006E00730065006400E7
:1042B000200075006E006400650072002000470059
:1042C0004E0055002000470065006E00650072003A
:1042D00061006C0020005000750062006C006900F5
:1042E000630020004C006900630065006E007300ED
:0C42F00065002000760032002E000A005D
:00000001FF
