:020000040000FA
:020000004B288B
:08000800AA00030EAB00010881
:10001000B0000408AC008B1C312881018B1006183D
:1000200017280B118B168316011783124428831689
:10003000011383128B1E44288B1232088400273050
:100040003002800CB10F4428840AF830B100F0303F
:100050000402031D2D28A030840080010408B20092
:10006000442832288B1E44280B1D44288B122F1441
:10007000F830B100B20AF0303202031D4128A0303E
:10008000B2003208840080012C0884002B0E83000B
:10009000AA0E2A0E0900403085008601A030B20069
:1000A000A50084008001F830B10007309F0083165E
:1000B000061386100611061285110511051364003A
:1000C000C430810083120030A300BE30A200FE3095
:1000D000A4000130B300AF01B5018B100B168B17D4
:1000E00085209A200C140C1C7A28F6237C20B50A53
:1000F00003198520A3207328101029308F00273082
:100100008E000C1001309000080056301923573033
:10011000192343301923443019235030192349300F
:10012000192343301923313019232E301923363047
:100130001923922952301923493019234E3019239B
:1001400047301923922925088400812203190800C9
:1001500095302602031DA528812203190800693065
:100160002602031DA8288122031908002608A700DB
:100170008122031908002608A8008122031908001B
:1001800080302602031D0F29F52103190C29CD21EA
:1001900003190C29BA2103190C29982103190C29D8
:1001A000722103190C295B2103190C29242203193C
:1001B0000C29322203190C29402203190C294E2242
:1001C00003190C295C2203190C296A2203190C2932
:1001D000122103190C29442103190C292A2103197E
:1001E0000C292508840081220319080026080A2307
:1001F00081220319080026080A2381220319080016
:1002000026080A2381220319080026080A238122CE
:100210000319080026080A230408A5000800023074
:10022000A50708004E302702031D0800B030280241
:10023000031D08009D224D301923453019234E30EF
:10024000192341301923423019234C3019234530EA
:100250001923922938302702031D0800C6302802CE
:10026000031D0800C4224D301923493019234E3094
:10027000192351301923553019234930192352308D
:10028000192359301923922910302702031D080021
:10029000EE302802031D0800BE30A2000130B3007A
:1002A0000030A3004D30192344301923493019235D
:1002B00053301923212934302702031D0800CA3086
:1002C0002802031D0800A20ABF302202BE30031814
:1002D000A200E03032235030192352301923563017
:1002E0001923882936302702031D0800C830280248
:1002F000031D0800A203B9302202B930031CA2007A
:10030000D03032234E30192358301923543019235A
:100310005F3019234C3019234930192353301923E6
:10032000543019230D3019230A30192303150800FE
:100330000C302702031DB129F2302802031D0800EA
:100340000230AF06C2303223523019234130192314
:100350004E301923443019234F3019234D301923BF
:1003600092290E302702031D0800F03028020319DD
:10037000A02908000A302702031D0800F4302802D3
:10038000031D0800C1303223503019234C3019238B
:10039000413019235930192392293E302702031D79
:1003A000EC29C0302802031D0800A4030F302405E7
:1003B000FB3EFA300319A407663024026630031CA2
:1003C000A400C83032234E30192345301923583049
:1003D00019235430192392292C302702031D0800B9
:1003E000D23028020319D52908003C302702031D0A
:1003F0001B2AC2302802031D0800A40A0F3024055E
:1004000006300319A407FF302402FE300318A400AD
:10041000C430322350301923523019234530192368
:1004200056301923493019234F30192355301923D9
:100430005330192392292A302702031D0800D43093
:1004400028020319FD29080060302702031D080057
:100450009E302802031D0800BE30A20078223130F1
:100460001923922962302702031D08009C302802BC
:10047000031D0800BD30A2007822323019239229D2
:1004800064302702031D08009A302802031D08006B
:10049000BC30A2007822333019239229663027021B
:1004A000031D080098302802031D0800BB30A2007D
:1004B000782234301923922968302702031D08005E
:1004C00096302802031D0800BA30A2007822353089
:1004D000192392296A302702031D0800943028024C
:1004E000031D0800B930A200782236301923922962
:1004F0004C30192349301923533019235430192310
:10050000080004083202031908000008A600840A43
:10051000F0300402031D0800A0308400031108001D
:100520000730013E031D912A08007430F422DC22BA
:100530008F30F4227C30F42208000230B300FE3009
:10054000B40008009430F422DC22AE30F4229C3057
:10055000F422B40F08000330B300EC30B4000800FC
:100560003430F422DC22AE30F4223C30F422B40FDA
:1005700008000430B30008003430F422DC22CF300D
:10058000F4223C30F42208000530B300FE30B40001
:1005900008001430F4222E30F422FF30F422FF3011
:1005A000F422FF30F422FF30F422FF30F4221C301A
:1005B000F422B40F0800B92A1F30230222080318BE
:1005C000E82AA30A193023022208031CE82A230878
:1005D000F4222408F422FF30F422FF30F422FB300E
:1005E000AF1C0F38F4220800A000F830A90005085D
:1005F0008B1308388500FB39A00D031804388500DB
:10060000F7398500A90FF92A8B17AC30013E031D7D
:10061000062B0800A100210E0F39F63E0318073EF5
:100620003A3E192321080F39F63E0318073E3A3E99
:10063000192BA000F730A9008B130608403886005C
:1006400000005923A90A03192C2BA00C031C1E2BF4
:10065000BF3986005923222B2D2BBF398600582302
:100660008B170800A000F730A9008B1383168613A0
:100670008312572357233C2BA90A0319492BA00C9B
:10068000031C362B8316861783125723572300002B
:100690003C2B000000008316861783125623562336
:1006A0008B170800532B542B552B562B572B582B9D
:1006B000592B5A2B5B2B5C2B5D2B5E2B5F2B602BFE
:1006C000612B622B632B642B652B662B672B682BAE
:0A06D000692B6A2B6B2B6C2B0800C2
:0407EC0003308A004C
:1007F000330882070000952AA22AB02ABC2AC92AF7
:02400E00503F21
:00000001FF
