:020000040000FA
:10000000850107309F004A28AC00030EAD000108AF
:10001000B0000408AE008B1C312881018B1006183B
:1000200017280B118B16831601178312432883168A
:10003000011383128B1E43288B1232088400273051
:100040003002800CB10F4328840AF830B1006030D0
:100050000402031D2D283830840080010408B200FA
:1000600043288B1E43280B1D43288B122F14F83076
:10007000B100B20A60303202031D40283830B200AD
:100080003208840080012E0884002D0E8300AC0EFF
:100090002C0E0900403085003830B200A7008400E3
:1000A0008001F830B10083160130860085016400BC
:1000B000C430810083120030A300BE30A200FE30A5
:1000C000A4000130B300AF01B5018B100B168B17E4
:1000D000A220B72023230C140C1C97289920F52369
:1000E000B50A0319A220B70F7928CE30B700FB302C
:1000F000AF05B60F9728F630B600A6030F302605D9
:10010000FB3EFA300319A607A630260203189728EB
:10011000FF30A600A5030F302505FB3EFA3003197A
:10012000A5076630250203189728FF30A500C020D8
:100130006C281010CF308F002B308E000C10313017
:100140009000080056304D2357304D2343304D2347
:1001500044304D2350304D2349304D2343304D23FF
:1001600032304D232E304D2333304D23B3295230BE
:100170004D2349304D234E304D2347304D23B32975
:1001800027088400AE220319080095302802031DB9
:10019000C228AE220319080069302802031DC528B1
:1001A000AE22031908002808A900AE22031908008E
:1001B0002808AA00AE220319080080302802031D77
:1001C0002D291B2203192A29F22103192A29DB21AF
:1001D00003192A29B92103192A29922103192A2945
:1001E0007A2103192A294B2203192A295A22031991
:1001F0002A29692203192A29782203192A29872200
:1002000003192A29962203192A29302103192A2998
:10021000622103192A29482103192A292708840061
:10022000AE220319080028083E23AE220319080055
:1002300028083E23AE220319080028083E23AE22D8
:100240000319080028083E23AE22031908002808D5
:100250003E23B3210408A70008000230A7070800C6
:100260004E302902031D0800B0302A02031D080089
:10027000CA224D304D2345304D234E304D23413061
:100280004D2342304D234C304D2345304D23B3296F
:1002900038302902031D0800C6302A02031D080059
:1002A000F1224D304D2349304D234E304D235130F6
:1002B0004D2355304D2349304D2352304D23593075
:1002C0004D23B32910302902031D0800EE302A0205
:1002D000031D0800BE30A2000130B300232300300C
:1002E000A3004D304D2344304D2349304D2353302E
:1002F0004D233F2934302902031D0800CA302A0249
:10030000031D08002323A20ABF302202BE300318B7
:10031000A200E030662350304D2352304D2356303A
:100320004D23A92936302902031D0800C8302A02AE
:10033000031D08002323A203B9302202B930031C95
:10034000A200D03066234E304D2358304D23543018
:100350004D235F304D234C304D2349304D235330D6
:100360004D2354304D230D304D230A304D230315BA
:1003700008000C302902031DD229F2302A02031D85
:1003800008000230AF06C230662352304D234130A0
:100390004D234E304D2344304D234F304D234D30AF
:1003A0004D23B3290E302902031D0800F0302A0224
:1003B0000319C12908000A302902031D0800F4307E
:1003C0002A02031D08000430AF06CE30B700C1304A
:1003D000662350304D234C304D2341304D2359304E
:1003E0004D23B3293E302902031D122AC0302A02B0
:1003F000031D08002323A4030F302405FB3EFA301D
:100400000319A407663024026630031CA400C83018
:1004100066234E304D2345304D2358304D23543004
:100420004D23B3292C302902031D0800D2302A02A3
:100430000319FB2908003C302902031D422AC2305F
:100440002A02031D08002323A40A0F3024050630C6
:100450000319A407FF302402FE300318A400C4309F
:10046000662350304D2352304D2345304D235630B6
:100470004D2349304D234F304D2355304D235330BC
:100480004D23B3292A302902031D0800D4302A0243
:100490000319242A080060302902031D08009E3039
:1004A0002A02031D0800BE30A2002323A5223130FA
:1004B0004D23B32962302902031D08009C302A0213
:1004C000031D08002323BD30A200A52232304D2396
:1004D000B32964302902031D08009A302A02031D43
:1004E00008002323BC30A200A52233304D23B329BA
:1004F00066302902031D080098302A02031D0800F7
:100500002323BB30A200A52234304D23B329683009
:100510002902031D080096302A02031D0800232328
:10052000BA30A200A52235304D23B3296A30290202
:10053000031D080094302A02031D08002323B9304C
:10054000A200A52236304D23B3294C304D2349302B
:100550004D2353304D2354304D23080004083202FC
:10056000031908000008A800840A60300402031D73
:10057000080038308400031108000730013E031DD5
:10058000BE2A08007430272309238F3027237C30AC
:10059000272308000230B300FE30B4000800943076
:1005A00027230923AE3027239C302723B40F0800CC
:1005B0000330B300EC30B4000800343027230923A3
:1005C000AE3027233C302723B40F08000430B3009B
:1005D0000800343027230923CF3027233C3027233A
:1005E00008000530B300FE30B400080014302723A3
:1005F0002E302723FF302723FF302723FF302723E8
:10060000FF302723FF3027231C302723B40F080097
:10061000E62A2F30230222080318152BA30A2930BB
:1006200023022208031C152B230827232408272331
:100630002508272326082723FB30AF1C0F382F1946
:100640002F3927230800FF30A600A5000800A000CE
:10065000F830AB0005088B1308388500FB39A00D76
:10066000031804388500F73985009323AB0F2C2B32
:100670008B17AC30013E031D3A2B0800A100210E60
:100680000F39F63E0318073E3A3E4D2321080F3935
:10069000F63E0318073E3A3E4D2BA000F730AB0064
:1006A0008B1306084038860000008D23AB0A03191F
:1006B000602BA00C031C522BBF3986008D23562BB8
:1006C000612BBF3986008C238B170800A000F73000
:1006D000AB008B138316861083128B238B23702B16
:1006E000AB0A03197D2BA00C031C6A2B83168614FE
:1006F00083128B238B230000702B000000008316D5
:10070000861483128A238A238B170800872B882B51
:10071000892B8A2B8B2B8C2B8D2B8E2B8F2B902B1D
:10072000912B922B932B942B952B962B972B982BCD
:10073000992B9A2B9B2B9C2B9D2B9E2B9F2BA02B7D
:020740000800AF
:0607EA0003308A00330811
:0E07F00082070000C22ACF2ADD2AE92AF62A53
:02400E00D03FA1
:00000001FF
