:020000040000FA
:10000000850107309F004A28AC00030EAD000108AF
:10001000B0000408AE008B1C312881018B1006183B
:1000200017280B118B16831601178312432883168A
:10003000011383128B1E43288B1232088400273051
:100040003002800CB10F4328840AF830B1006030D0
:100050000402031D2D283830840080010408B200FA
:1000600043288B1E43280B1D43288B122F14F83076
:10007000B100B20A60303202031D40283830B200AD
:100080003208840080012E0884002D0E8300AC0EFF
:100090002C0E0900403085003830B200A7008400E3
:1000A0008001F830B10083160130860085016400BC
:1000B000C430810083120030A300BE30A200FE30A5
:1000C000A4000130B300AF01B5018B100B168B17E4
:1000D000A220B72025230C140C1C97289920F52367
:1000E000B50A0319A220B70F7928CE30B700FB302C
:1000F000AF05B60F9728F630B600A6030F302605D9
:10010000FB3EFA300319A607A630260203189728EB
:10011000FF30A600A5030F302505FB3EFA3003197A
:10012000A5076630250203189728FF30A500C020D8
:100130006C281010CF308F002B308E000C10313017
:100140009000080056304F2357304F2343304F2341
:1001500044304F2350304F2349304F2343304F23F7
:1001600032304F232E304F2334304F23B5295230B5
:100170004F2349304F234E304F2347304F23B5296B
:1001800027088400B8220319080095302802031DAF
:10019000C228B8220319080069302802031DC528A7
:1001A000B822031908002808A900B822031908007A
:1001B0002808AA00B8220319080080302802031D6D
:1001C0002D291E2203192A29F42103192A29DD21A8
:1001D00003192A29BB2103192A29942103192A2941
:1001E0007C2103192A294F2203192A295F22031986
:1001F0002A296F2203192A297F2203192A298F22EB
:1002000003192A299F2203192A29302103192A298F
:10021000642103192A294B2103192A29270884005C
:10022000B8220319080028084023B822031908003F
:1002300028084023B8220319080028084023B822C0
:100240000319080028084023B822031908002808C9
:100250004023B5210408A70008000230A7070800C2
:100260004E302902031D0800B0302A02031D080089
:10027000013033020319D4224D304F2345304F2330
:100280004E304F2341304F2342304F234C304F23C9
:1002900045304F23B52938302902031D0800C630E8
:1002A0002A02031D08004D304F2349304F234E30A2
:1002B0004F2351304F2355304F2349304F23523075
:1002C0004F2359304F23B52910302902031D080050
:1002D000EE302A02031D0800BE30A2000130B30038
:1002E00025230030A3004D304F2344304F234930A5
:1002F0004F2353304F23422934302902031D080075
:10030000CA302A02031D08002523A20ABF30220298
:10031000BE300318A200E030682350304F23523023
:100320004F2356304F23AB2936302902031D0800D6
:10033000C8302A02031D08002523A203B930220277
:10034000B930031CA200D03068234E304F23583000
:100350004F2354304F235F304F234C304F234930CD
:100360004F2353304F2354304F230D304F230A3047
:100370004F23031508000C302902031DD429F23045
:100380002A02031D08000230AF06C2306823523033
:100390004F2341304F234E304F2344304F234F30B3
:1003A0004F234D304F23B5290E302902031D08007D
:1003B000F0302A020319C32908000A302902031D5C
:1003C0000800F4302A02031D08000430AF06CE30C6
:1003D000B700C130682350304F234C304F23413099
:1003E0004F2359304F23B5293E302902031D152ACA
:1003F000C0302A02031D0800FC222523A4030F306D
:100400002405FB3EFA300319A40766302402663047
:10041000031CA400C83068234E304F2345304F23BF
:1004200058304F2354304F23B5292C302902031D57
:100430000800D2302A020319FC2908003C302902A6
:10044000031D462AC2302A02031D0800FC22252370
:10045000A40A0F30240506300319A407FF30240234
:10046000FE300318A400C430682350304F235230AC
:100470004F2345304F2356304F2349304F234F30C1
:100480004F2355304F2353304F23B5292A302902AB
:10049000031D0800D4302A020319262A0800603000
:1004A0002902031D08009E302A02031D0800BE30E9
:1004B000A200FC222523AF2231304F23B529623020
:1004C0002902031D08009C302A02031D0800FC229B
:1004D0002523BD30A200AF2232304F23B52964302E
:1004E0002902031D08009A302A02031D0800FC227D
:1004F0002523BC30A200AF2233304F23B52966300C
:100500002902031D080098302A02031D0800FC225E
:100510002523BB30A200AF2234304F23B5296830E9
:100520002902031D080096302A02031D0800FC2240
:100530002523BA30A200AF2235304F23B5296A30C7
:100540002902031D080094302A02031D0800FC2222
:100550002523B930A200AF2236304F23B5294C30C5
:100560004F2349304F2353304F2354304F2308003B
:1005700004083202031908000008A800840A603049
:100580000402031D080038308400031108000730FE
:10059000013E031DC82A0800743029230B238F3025
:1005A00029237C30292308000230B300FE30B40038
:1005B0000800943029230B23AE3029239C302923B3
:1005C000B40F08000330B300EC30B400080034303E
:1005D00029230B23AE3029233C302923B40F0800F4
:1005E000FC2A0430B3000800343029230B23CF3019
:1005F00029233C30292308000530B300FE30B40025
:100600000800143029230B23FF3029231C30292311
:10061000B40F0800F12A2F30230222080318172BE9
:10062000A30A293023022208031C172B230829239D
:10063000240829232508292326082923FB30AF1C59
:100640000F382F192F3929230800FF30A600A500E5
:100650000800A000F830AB0005088B1308388500AF
:10066000FB39A00D031804388500F7398500952360
:10067000AB0F2E2B8B17AC30013E031D3C2B08001B
:10068000A100210E0F39F63E0318073E3A3E4F23D4
:1006900021080F39F63E0318073E3A3E4F2BA000C3
:1006A000F730AB008B1306084038860000008F231C
:1006B000AB0A0319622BA00C031C542BBF39860014
:1006C0008F23582B632BBF3986008E238B1708008E
:1006D000A000F730AB008B138316861083128D2396
:1006E0008D23722BAB0A03197F2BA00C031C6C2BE0
:1006F0008316861483128D238D230000722B000035
:1007000000008316861483128C238C238B17080019
:10071000892B8A2B8B2B8C2B8D2B8E2B8F2B902B1D
:10072000912B922B932B942B952B962B972B982BCD
:10073000992B9A2B9B2B9C2B9D2B9E2B9F2BA02B7D
:06074000A12BA22B080012
:0607EA0003308A00330811
:0E07F00082070000CC2AD92AE72AF42A012B1E
:02400E00D03FA1
:10420000560057004300440050004900430020007E
:104210004600690072006D00770061007200650061
:104220002000760032002E0034000A0043006F00A8
:104230007000790072006900670068007400200057
:1042400028006300290020003200300030003300D5
:104250002C002000450064007700610072006400BB
:1042600020005300630068006C0075006E0064005D
:104270006500720020003C006500640040006B0097
:10428000390073007000750064002E0063006F0039
:104290006D003E000A004C006900630065006E007E
:1042A000730065006400200075006E006400650006
:1042B0007200200047004E005500200047006500B6
:1042C0006E006500720061006C00200050007500F7
:1042D00062006C006900630020004C00690063000C
:1042E00065006E00730065002000760032002E002D
:0242F0000A00C2
:00000001FF
