:020000040000FA
:020000000528D1
:0800080009008B018301850151
:100010008601831685018601810183121F201A2023
:100020001A201A201A201A201A201A201A201A2000
:100030001A200E280730013E031D1B2808007430CB
:100040003020BE303020FE303020FF303020FF30F6
:100050003020FF3030208F3030207C3030200800BE
:10006000A000F8308B13A00D051585110318851518
:100070000511013E031D33288B17AC30013E031DD3
:040080003E2808000E
:02400E00F13F80
:00000001FF
